{
  "contractName": "FixedRateSellStrategy",
  "abi": [
    {
      "inputs": [
        {
          "internalType": "address",
          "name": "_buyerAddr",
          "type": "address"
        },
        {
          "internalType": "contract IERC721",
          "name": "_nft",
          "type": "address"
        },
        {
          "internalType": "contract IMarketplace",
          "name": "_mkp",
          "type": "address"
        },
        {
          "internalType": "uint256",
          "name": "_tokenId",
          "type": "uint256"
        },
        {
          "internalType": "uint256",
          "name": "_orderId",
          "type": "uint256"
        }
      ],
      "name": "execute",
      "outputs": [
        {
          "internalType": "bool",
          "name": "",
          "type": "bool"
        }
      ],
      "stateMutability": "nonpayable",
      "type": "function"
    }
  ],
  "bytecode": "0x608060405234801561001057600080fd5b50610aea806100206000396000f3fe608060405234801561001057600080fd5b506004361061002b5760003560e01c80633343a58514610030575b600080fd5b61004a6004803603810190610045919061047b565b610060565b6040516100579190610511565b60405180910390f35b6000808473ffffffffffffffffffffffffffffffffffffffff1663d09ef241846040518263ffffffff1660e01b815260040161009c919061053b565b60e0604051808303816000875af11580156100bb573d6000803e3d6000fd5b505050506040513d601f19601f820116820180604052508101906100df919061079c565b905060008160a001519050600160028111156100fe576100fd6107c9565b5b82602001516002811115610115576101146107c9565b5b14610155576040517f08c379a000000000000000000000000000000000000000000000000000000000815260040161014c9061087b565b60405180910390fd5b81608001518173ffffffffffffffffffffffffffffffffffffffff1663dd62ed3e8a336040518363ffffffff1660e01b81526004016101959291906108aa565b602060405180830381865afa1580156101b2573d6000803e3d6000fd5b505050506040513d601f19601f820116820180604052508101906101d691906108d3565b1015610217576040517f08c379a000000000000000000000000000000000000000000000000000000000815260040161020e90610972565b60405180910390fd5b8073ffffffffffffffffffffffffffffffffffffffff166323b872dd893385608001516040518463ffffffff1660e01b815260040161025893929190610992565b6020604051808303816000875af1158015610277573d6000803e3d6000fd5b505050506040513d601f19601f8201168201806040525081019061029b91906109f5565b6102da576040517f08c379a00000000000000000000000000000000000000000000000000000000081526004016102d190610a94565b60405180910390fd5b8673ffffffffffffffffffffffffffffffffffffffff166342842e0e8360c001518a886040518463ffffffff1660e01b815260040161031b93929190610992565b600060405180830381600087803b15801561033557600080fd5b505af1158015610349573d6000803e3d6000fd5b5050505060019250505095945050505050565b6000604051905090565b600080fd5b600073ffffffffffffffffffffffffffffffffffffffff82169050919050565b60006103968261036b565b9050919050565b6103a68161038b565b81146103b157600080fd5b50565b6000813590506103c38161039d565b92915050565b60006103d48261038b565b9050919050565b6103e4816103c9565b81146103ef57600080fd5b50565b600081359050610401816103db565b92915050565b60006104128261038b565b9050919050565b61042281610407565b811461042d57600080fd5b50565b60008135905061043f81610419565b92915050565b6000819050919050565b61045881610445565b811461046357600080fd5b50565b6000813590506104758161044f565b92915050565b600080600080600060a0868803121561049757610496610366565b5b60006104a5888289016103b4565b95505060206104b6888289016103f2565b94505060406104c788828901610430565b93505060606104d888828901610466565b92505060806104e988828901610466565b9150509295509295909350565b60008115159050919050565b61050b816104f6565b82525050565b60006020820190506105266000830184610502565b92915050565b61053581610445565b82525050565b6000602082019050610550600083018461052c565b92915050565b600080fd5b6000601f19601f8301169050919050565b7f4e487b7100000000000000000000000000000000000000000000000000000000600052604160045260246000fd5b6105a48261055b565b810181811067ffffffffffffffff821117156105c3576105c261056c565b5b80604052505050565b60006105d661035c565b90506105e2828261059b565b919050565b6000819050919050565b6105fa816105e7565b811461060557600080fd5b50565b600081519050610617816105f1565b92915050565b6003811061062a57600080fd5b50565b60008151905061063c8161061d565b92915050565b600061064d8261038b565b9050919050565b61065d81610642565b811461066857600080fd5b50565b60008151905061067a81610654565b92915050565b60008151905061068f8161044f565b92915050565b60006106a08261038b565b9050919050565b6106b081610695565b81146106bb57600080fd5b50565b6000815190506106cd816106a7565b92915050565b6000815190506106e28161039d565b92915050565b600060e082840312156106fe576106fd610556565b5b61070860e06105cc565b9050600061071884828501610608565b600083015250602061072c8482850161062d565b60208301525060406107408482850161066b565b604083015250606061075484828501610608565b606083015250608061076884828501610680565b60808301525060a061077c848285016106be565b60a08301525060c0610790848285016106d3565b60c08301525092915050565b600060e082840312156107b2576107b1610366565b5b60006107c0848285016106e8565b91505092915050565b7f4e487b7100000000000000000000000000000000000000000000000000000000600052602160045260246000fd5b600082825260208201905092915050565b7f4f72646572207374617465206d7573742062652041637469766520666f72207360008201527f656c6c696e670000000000000000000000000000000000000000000000000000602082015250565b60006108656026836107f8565b915061087082610809565b604082019050919050565b6000602082019050818103600083015261089481610858565b9050919050565b6108a48161038b565b82525050565b60006040820190506108bf600083018561089b565b6108cc602083018461089b565b9392505050565b6000602082840312156108e9576108e8610366565b5b60006108f784828501610680565b91505092915050565b7f4275796572206861766520696e73756666696369656e742066756e647320666f60008201527f722074686973206f726465722070726963650000000000000000000000000000602082015250565b600061095c6032836107f8565b915061096782610900565b604082019050919050565b6000602082019050818103600083015261098b8161094f565b9050919050565b60006060820190506109a7600083018661089b565b6109b4602083018561089b565b6109c1604083018461052c565b949350505050565b6109d2816104f6565b81146109dd57600080fd5b50565b6000815190506109ef816109c9565b92915050565b600060208284031215610a0b57610a0a610366565b5b6000610a19848285016109e0565b91505092915050565b7f5472616e7366657220746f204d61726b6574706c61636520756e73756363657360008201527f7366756c00000000000000000000000000000000000000000000000000000000602082015250565b6000610a7e6024836107f8565b9150610a8982610a22565b604082019050919050565b60006020820190508181036000830152610aad81610a71565b905091905056fea26469706673582212201ed28c20f7138333b647ba84b40dae986a38cc38102fc069c7249cd30300e3dd64736f6c634300080b0033",
  "immutableReferences": {},
  "source": "// SPDX-License-Identifier: MIT OR Apache-2.0\npragma solidity ^0.8.4;\n\nimport {ISaleStrategy} from \"./ISaleStrategy.sol\";\nimport {IERC721} from \"@openzeppelin/contracts/token/ERC721/IERC721.sol\";\nimport {IERC20} from \"@openzeppelin/contracts/token/ERC20/IERC20.sol\";\nimport {Order, OrderStatus} from \"../order/Order.sol\";\nimport {IMarketplace} from \"../IMarketplace.sol\";\n\ncontract FixedRateSellStrategy is ISaleStrategy {\n    /**\n        @dev Sell order execution using IERC721 and IERC20 interfaces from openzeppelin.\n        @inheritdoc ISaleStrategy\n    */\n    function execute(\n        address _buyerAddr,\n        IERC721 _nft,\n        IMarketplace _mkp,\n        uint256 _tokenId,\n        uint256 _orderId\n    ) external override returns (bool) {\n        Order memory _order = _mkp.getOrder(_orderId);\n        IERC20 _currencyAddr = _order.currency;\n\n        require(\n            _order.status == OrderStatus.Active,\n            \"Order state must be Active for selling\"\n        );\n        require(\n            _currencyAddr.allowance(_buyerAddr, msg.sender) >= _order.price,\n            \"Buyer have insufficient funds for this order price\"\n        );\n        require(\n            _currencyAddr.transferFrom(_buyerAddr, msg.sender, _order.price),\n            \"Transfer to Marketplace unsuccessful\"\n        );\n\n        IERC721(_nft).safeTransferFrom(_order.provider, _buyerAddr, _tokenId);\n\n        return true;\n    }\n}\n",
  "sourcePath": "/Users/rjauregui/RIF_MKTV2/rif-marketplace-engine-integration-tests/contracts/asset/FixedRateSellStrategy.sol",
  "compiler": {
    "name": "solc",
    "version": "0.8.11+commit.d7f03943.Emscripten.clang"
  },
  "schemaVersion": "3.4.3",
  "updatedAt": "2021-12-22T21:29:30.831Z",
  "devdoc": {
    "kind": "dev",
    "methods": {
      "execute(address,address,address,uint256,uint256)": {
        "details": "Sell order execution using IERC721 and IERC20 interfaces from openzeppelin.",
        "params": {
          "_buyerAddr": "contract address for buyer.",
          "_mkp": "marketplace.",
          "_nft": "NFT.",
          "_orderId": "Id of an Order put on Marketplace for sell.",
          "_tokenId": "token owned by provider in order."
        },
        "returns": {
          "_0": "bool."
        }
      }
    },
    "version": 1
  },
  "userdoc": {
    "kind": "user",
    "methods": {
      "execute(address,address,address,uint256,uint256)": {
        "notice": "Execute order for sell."
      }
    },
    "version": 1
  }
}