{
  "contractName": "IncrementalIDGenerationStrategy",
  "abi": [
    {
      "inputs": [],
      "name": "getTokenCounter",
      "outputs": [
        {
          "internalType": "uint256",
          "name": "",
          "type": "uint256"
        }
      ],
      "stateMutability": "view",
      "type": "function"
    },
    {
      "inputs": [],
      "name": "generate",
      "outputs": [
        {
          "internalType": "uint256",
          "name": "",
          "type": "uint256"
        }
      ],
      "stateMutability": "nonpayable",
      "type": "function"
    }
  ],
  "bytecode": "0x608060405234801561001057600080fd5b5061011b806100206000396000f3fe6080604052348015600f57600080fd5b506004361060325760003560e01c80632a1bbc341460375780636e02007d146051575b600080fd5b603d606b565b6040516048919060cc565b60405180910390f35b60576082565b6040516062919060cc565b60405180910390f35b6000607560006091565b607d600060a7565b905090565b6000608c600060a7565b905090565b6001816000016000828254019250508190555050565b600081600001549050919050565b6000819050919050565b60c68160b5565b82525050565b600060208201905060df600083018460bf565b9291505056fea2646970667358221220517b16204961e3e2c607643d1dadaf1ba20431e7e825a2bc34fcef0687ce629364736f6c634300080b0033",
  "immutableReferences": {},
  "source": "// SPDX-License-Identifier: MIT OR Apache-2.0\npragma solidity ^0.8.4;\n\nimport {IDGenerationStrategy} from \"./IDGenerationStrategy.sol\";\nimport \"@openzeppelin/contracts/utils/Counters.sol\";\n\nimport \"hardhat/console.sol\";\n\n/**\n    @author RIF Protocols Team @IOVLabs\n    @title IncrementalOrderIDGenerationStrategy\n\n    @dev Partial marketplace contract, defining an incremental strategy for ids.\n */\ncontract IncrementalIDGenerationStrategy is IDGenerationStrategy {\n    using Counters for Counters.Counter;\n    Counters.Counter private _tokenIdCounter;\n\n    function getTokenCounter() public view returns (uint256) {\n        return _tokenIdCounter.current();\n    }\n\n    /**\n        @notice Generates the id using openzeppelin Counter. \n        @return result an uint256 with the id value.\n    */\n    function generate() external override returns (uint256) {\n        _tokenIdCounter.increment();\n        return _tokenIdCounter.current();\n    }\n}\n",
  "sourcePath": "/Users/jjtechera/Documents/GitHub/rif-marketplace-engine-integration-tests/contracts/id/IncrementalIDGenerationStrategy.sol",
  "compiler": {
    "name": "solc",
    "version": "0.8.11+commit.d7f03943.Emscripten.clang"
  },
  "schemaVersion": "3.4.4",
  "updatedAt": "2021-12-22T00:27:00.526Z",
  "devdoc": {
    "author": "RIF Protocols Team @IOVLabs",
    "details": "Partial marketplace contract, defining an incremental strategy for ids.",
    "kind": "dev",
    "methods": {
      "generate()": {
        "returns": {
          "_0": "result an uint256 with the id value."
        }
      }
    },
    "title": "IncrementalOrderIDGenerationStrategy",
    "version": 1
  },
  "userdoc": {
    "kind": "user",
    "methods": {
      "generate()": {
        "notice": "Generates the id using openzeppelin Counter. "
      }
    },
    "version": 1
  }
}