{
  "contractName": "Marketplace",
  "abi": [
    {
      "inputs": [
        {
          "internalType": "bool",
          "name": "_requireWhitelistedAssetType",
          "type": "bool"
        },
        {
          "internalType": "bool",
          "name": "_requireWhitelistedAssetProvider",
          "type": "bool"
        },
        {
          "internalType": "bool",
          "name": "_requireAssetValidation",
          "type": "bool"
        },
        {
          "internalType": "bool",
          "name": "_requireSaleStrategyPerAsset",
          "type": "bool"
        },
        {
          "internalType": "bool",
          "name": "_requireSameCurrencyPerAsset",
          "type": "bool"
        },
        {
          "internalType": "bool",
          "name": "_requireAssetSubdomain",
          "type": "bool"
        },
        {
          "internalType": "bool",
          "name": "_supportStakingAndSlashing",
          "type": "bool"
        }
      ],
      "stateMutability": "nonpayable",
      "type": "constructor"
    },
    {
      "anonymous": false,
      "inputs": [
        {
          "indexed": true,
          "internalType": "address",
          "name": "previousOwner",
          "type": "address"
        },
        {
          "indexed": true,
          "internalType": "address",
          "name": "newOwner",
          "type": "address"
        }
      ],
      "name": "OwnershipTransferred",
      "type": "event"
    },
    {
      "anonymous": false,
      "inputs": [
        {
          "indexed": true,
          "internalType": "bytes32",
          "name": "role",
          "type": "bytes32"
        },
        {
          "indexed": true,
          "internalType": "bytes32",
          "name": "previousAdminRole",
          "type": "bytes32"
        },
        {
          "indexed": true,
          "internalType": "bytes32",
          "name": "newAdminRole",
          "type": "bytes32"
        }
      ],
      "name": "RoleAdminChanged",
      "type": "event"
    },
    {
      "anonymous": false,
      "inputs": [
        {
          "indexed": true,
          "internalType": "bytes32",
          "name": "role",
          "type": "bytes32"
        },
        {
          "indexed": true,
          "internalType": "address",
          "name": "account",
          "type": "address"
        },
        {
          "indexed": true,
          "internalType": "address",
          "name": "sender",
          "type": "address"
        }
      ],
      "name": "RoleGranted",
      "type": "event"
    },
    {
      "anonymous": false,
      "inputs": [
        {
          "indexed": true,
          "internalType": "bytes32",
          "name": "role",
          "type": "bytes32"
        },
        {
          "indexed": true,
          "internalType": "address",
          "name": "account",
          "type": "address"
        },
        {
          "indexed": true,
          "internalType": "address",
          "name": "sender",
          "type": "address"
        }
      ],
      "name": "RoleRevoked",
      "type": "event"
    },
    {
      "inputs": [],
      "name": "DEFAULT_ADMIN_ROLE",
      "outputs": [
        {
          "internalType": "bytes32",
          "name": "",
          "type": "bytes32"
        }
      ],
      "stateMutability": "view",
      "type": "function",
      "constant": true
    },
    {
      "inputs": [
        {
          "internalType": "address",
          "name": "_adminAddr",
          "type": "address"
        }
      ],
      "name": "addAdministrator",
      "outputs": [],
      "stateMutability": "nonpayable",
      "type": "function"
    },
    {
      "inputs": [
        {
          "internalType": "address",
          "name": "_assetManagerAddr",
          "type": "address"
        }
      ],
      "name": "addAssetManager",
      "outputs": [],
      "stateMutability": "nonpayable",
      "type": "function"
    },
    {
      "inputs": [
        {
          "internalType": "address",
          "name": "_address",
          "type": "address"
        }
      ],
      "name": "addAssetTypeToWhitelist",
      "outputs": [],
      "stateMutability": "nonpayable",
      "type": "function"
    },
    {
      "inputs": [
        {
          "internalType": "address",
          "name": "_address",
          "type": "address"
        }
      ],
      "name": "addAssetValidatorDelegate",
      "outputs": [],
      "stateMutability": "nonpayable",
      "type": "function"
    },
    {
      "inputs": [
        {
          "internalType": "address",
          "name": "_financeAddr",
          "type": "address"
        }
      ],
      "name": "addFinance",
      "outputs": [],
      "stateMutability": "nonpayable",
      "type": "function"
    },
    {
      "inputs": [
        {
          "internalType": "address",
          "name": "_financeManagerAddr",
          "type": "address"
        }
      ],
      "name": "addFinanceManager",
      "outputs": [],
      "stateMutability": "nonpayable",
      "type": "function"
    },
    {
      "inputs": [
        {
          "internalType": "address",
          "name": "token_",
          "type": "address"
        }
      ],
      "name": "getAsset",
      "outputs": [
        {
          "components": [
            {
              "components": [
                {
                  "internalType": "address",
                  "name": "validator",
                  "type": "address"
                },
                {
                  "internalType": "address",
                  "name": "deletage",
                  "type": "address"
                },
                {
                  "internalType": "bool",
                  "name": "approved",
                  "type": "bool"
                }
              ],
              "internalType": "struct AssetValidationRecord[]",
              "name": "validatorHistory",
              "type": "tuple[]"
            },
            {
              "internalType": "enum AssetState",
              "name": "state",
              "type": "uint8"
            },
            {
              "internalType": "bytes32",
              "name": "subdomain",
              "type": "bytes32"
            }
          ],
          "internalType": "struct Asset",
          "name": "",
          "type": "tuple"
        }
      ],
      "stateMutability": "view",
      "type": "function",
      "constant": true
    },
    {
      "inputs": [
        {
          "internalType": "bytes32",
          "name": "role",
          "type": "bytes32"
        }
      ],
      "name": "getRoleAdmin",
      "outputs": [
        {
          "internalType": "bytes32",
          "name": "",
          "type": "bytes32"
        }
      ],
      "stateMutability": "view",
      "type": "function",
      "constant": true
    },
    {
      "inputs": [
        {
          "internalType": "bytes32",
          "name": "role",
          "type": "bytes32"
        },
        {
          "internalType": "address",
          "name": "account",
          "type": "address"
        }
      ],
      "name": "grantRole",
      "outputs": [],
      "stateMutability": "nonpayable",
      "type": "function"
    },
    {
      "inputs": [
        {
          "internalType": "bytes32",
          "name": "role",
          "type": "bytes32"
        },
        {
          "internalType": "address",
          "name": "account",
          "type": "address"
        }
      ],
      "name": "hasRole",
      "outputs": [
        {
          "internalType": "bool",
          "name": "",
          "type": "bool"
        }
      ],
      "stateMutability": "view",
      "type": "function",
      "constant": true
    },
    {
      "inputs": [
        {
          "internalType": "address",
          "name": "_adminAddr",
          "type": "address"
        }
      ],
      "name": "isAdministrator",
      "outputs": [
        {
          "internalType": "bool",
          "name": "",
          "type": "bool"
        }
      ],
      "stateMutability": "view",
      "type": "function",
      "constant": true
    },
    {
      "inputs": [
        {
          "internalType": "address",
          "name": "_assetManagerAddr",
          "type": "address"
        }
      ],
      "name": "isAssetManager",
      "outputs": [
        {
          "internalType": "bool",
          "name": "",
          "type": "bool"
        }
      ],
      "stateMutability": "view",
      "type": "function",
      "constant": true
    },
    {
      "inputs": [
        {
          "internalType": "address",
          "name": "_assetProviderAddr",
          "type": "address"
        }
      ],
      "name": "isAssetProvider",
      "outputs": [
        {
          "internalType": "bool",
          "name": "",
          "type": "bool"
        }
      ],
      "stateMutability": "view",
      "type": "function",
      "constant": true
    },
    {
      "inputs": [
        {
          "internalType": "address",
          "name": "_assetProviderManagerAddr",
          "type": "address"
        }
      ],
      "name": "isAssetProviderManager",
      "outputs": [
        {
          "internalType": "bool",
          "name": "",
          "type": "bool"
        }
      ],
      "stateMutability": "view",
      "type": "function",
      "constant": true
    },
    {
      "inputs": [],
      "name": "isAssetSubdomainRequired",
      "outputs": [
        {
          "internalType": "bool",
          "name": "",
          "type": "bool"
        }
      ],
      "stateMutability": "view",
      "type": "function",
      "constant": true
    },
    {
      "inputs": [
        {
          "internalType": "address",
          "name": "_address",
          "type": "address"
        }
      ],
      "name": "isAssetTypeWhitelisted",
      "outputs": [
        {
          "internalType": "bool",
          "name": "",
          "type": "bool"
        }
      ],
      "stateMutability": "view",
      "type": "function",
      "constant": true
    },
    {
      "inputs": [],
      "name": "isAssetValidationRequired",
      "outputs": [
        {
          "internalType": "bool",
          "name": "",
          "type": "bool"
        }
      ],
      "stateMutability": "view",
      "type": "function",
      "constant": true
    },
    {
      "inputs": [
        {
          "internalType": "address",
          "name": "_assetValidatorAddr",
          "type": "address"
        }
      ],
      "name": "isAssetValidator",
      "outputs": [
        {
          "internalType": "bool",
          "name": "",
          "type": "bool"
        }
      ],
      "stateMutability": "view",
      "type": "function",
      "constant": true
    },
    {
      "inputs": [
        {
          "internalType": "address",
          "name": "_address",
          "type": "address"
        }
      ],
      "name": "isAssetValidatorDelegate",
      "outputs": [
        {
          "internalType": "bool",
          "name": "",
          "type": "bool"
        }
      ],
      "stateMutability": "view",
      "type": "function",
      "constant": true
    },
    {
      "inputs": [
        {
          "internalType": "address",
          "name": "_assetManagerAddr",
          "type": "address"
        }
      ],
      "name": "isAssetValidatorManager",
      "outputs": [
        {
          "internalType": "bool",
          "name": "",
          "type": "bool"
        }
      ],
      "stateMutability": "view",
      "type": "function",
      "constant": true
    },
    {
      "inputs": [
        {
          "internalType": "address",
          "name": "_financeAddr",
          "type": "address"
        }
      ],
      "name": "isFinance",
      "outputs": [
        {
          "internalType": "bool",
          "name": "",
          "type": "bool"
        }
      ],
      "stateMutability": "view",
      "type": "function",
      "constant": true
    },
    {
      "inputs": [
        {
          "internalType": "address",
          "name": "_financeManagerAddr",
          "type": "address"
        }
      ],
      "name": "isFinanceManager",
      "outputs": [
        {
          "internalType": "bool",
          "name": "",
          "type": "bool"
        }
      ],
      "stateMutability": "view",
      "type": "function",
      "constant": true
    },
    {
      "inputs": [
        {
          "internalType": "address",
          "name": "_ownerAddr",
          "type": "address"
        }
      ],
      "name": "isOwnerRole",
      "outputs": [
        {
          "internalType": "bool",
          "name": "",
          "type": "bool"
        }
      ],
      "stateMutability": "view",
      "type": "function",
      "constant": true
    },
    {
      "inputs": [],
      "name": "isSaleStrategyPerAssetRequired",
      "outputs": [
        {
          "internalType": "bool",
          "name": "",
          "type": "bool"
        }
      ],
      "stateMutability": "view",
      "type": "function",
      "constant": true
    },
    {
      "inputs": [],
      "name": "isSameCurrencyPerAssetRequired",
      "outputs": [
        {
          "internalType": "bool",
          "name": "",
          "type": "bool"
        }
      ],
      "stateMutability": "view",
      "type": "function",
      "constant": true
    },
    {
      "inputs": [],
      "name": "isStakingAndSlashingSupported",
      "outputs": [
        {
          "internalType": "bool",
          "name": "",
          "type": "bool"
        }
      ],
      "stateMutability": "view",
      "type": "function",
      "constant": true
    },
    {
      "inputs": [],
      "name": "isWhitelistedAssetProviderRequired",
      "outputs": [
        {
          "internalType": "bool",
          "name": "",
          "type": "bool"
        }
      ],
      "stateMutability": "view",
      "type": "function",
      "constant": true
    },
    {
      "inputs": [],
      "name": "isWhitelistedAssetRequired",
      "outputs": [
        {
          "internalType": "bool",
          "name": "",
          "type": "bool"
        }
      ],
      "stateMutability": "view",
      "type": "function",
      "constant": true
    },
    {
      "inputs": [],
      "name": "owner",
      "outputs": [
        {
          "internalType": "address",
          "name": "",
          "type": "address"
        }
      ],
      "stateMutability": "view",
      "type": "function",
      "constant": true
    },
    {
      "inputs": [
        {
          "internalType": "address",
          "name": "_adminAddr",
          "type": "address"
        }
      ],
      "name": "removeAdministrator",
      "outputs": [],
      "stateMutability": "nonpayable",
      "type": "function"
    },
    {
      "inputs": [
        {
          "internalType": "address",
          "name": "_assetManagerAddr",
          "type": "address"
        }
      ],
      "name": "removeAssetManager",
      "outputs": [],
      "stateMutability": "nonpayable",
      "type": "function"
    },
    {
      "inputs": [
        {
          "internalType": "address",
          "name": "_assetProviderAddr",
          "type": "address"
        }
      ],
      "name": "removeAssetProvider",
      "outputs": [],
      "stateMutability": "nonpayable",
      "type": "function"
    },
    {
      "inputs": [
        {
          "internalType": "address",
          "name": "_assetProviderManagerAddr",
          "type": "address"
        }
      ],
      "name": "removeAssetProviderManager",
      "outputs": [],
      "stateMutability": "nonpayable",
      "type": "function"
    },
    {
      "inputs": [
        {
          "internalType": "address",
          "name": "_address",
          "type": "address"
        }
      ],
      "name": "removeAssetTypeFromWhitelist",
      "outputs": [],
      "stateMutability": "nonpayable",
      "type": "function"
    },
    {
      "inputs": [
        {
          "internalType": "address",
          "name": "_assetValidatorAddr",
          "type": "address"
        }
      ],
      "name": "removeAssetValidator",
      "outputs": [],
      "stateMutability": "nonpayable",
      "type": "function"
    },
    {
      "inputs": [
        {
          "internalType": "address",
          "name": "_address",
          "type": "address"
        }
      ],
      "name": "removeAssetValidatorDelegate",
      "outputs": [],
      "stateMutability": "nonpayable",
      "type": "function"
    },
    {
      "inputs": [
        {
          "internalType": "address",
          "name": "_assetValidatorManagerAddr",
          "type": "address"
        }
      ],
      "name": "removeAssetValidatorManager",
      "outputs": [],
      "stateMutability": "nonpayable",
      "type": "function"
    },
    {
      "inputs": [
        {
          "internalType": "address",
          "name": "_financeAddr",
          "type": "address"
        }
      ],
      "name": "removeFinance",
      "outputs": [],
      "stateMutability": "nonpayable",
      "type": "function"
    },
    {
      "inputs": [
        {
          "internalType": "address",
          "name": "_financeManagerAddr",
          "type": "address"
        }
      ],
      "name": "removeFinanceManager",
      "outputs": [],
      "stateMutability": "nonpayable",
      "type": "function"
    },
    {
      "inputs": [],
      "name": "renounceOwnership",
      "outputs": [],
      "stateMutability": "nonpayable",
      "type": "function"
    },
    {
      "inputs": [
        {
          "internalType": "bytes32",
          "name": "role",
          "type": "bytes32"
        },
        {
          "internalType": "address",
          "name": "account",
          "type": "address"
        }
      ],
      "name": "renounceRole",
      "outputs": [],
      "stateMutability": "nonpayable",
      "type": "function"
    },
    {
      "inputs": [
        {
          "internalType": "address",
          "name": "token_",
          "type": "address"
        }
      ],
      "name": "requestAssetRegistration",
      "outputs": [],
      "stateMutability": "nonpayable",
      "type": "function"
    },
    {
      "inputs": [
        {
          "internalType": "bytes32",
          "name": "role",
          "type": "bytes32"
        },
        {
          "internalType": "address",
          "name": "account",
          "type": "address"
        }
      ],
      "name": "revokeRole",
      "outputs": [],
      "stateMutability": "nonpayable",
      "type": "function"
    },
    {
      "inputs": [],
      "name": "rnsDomain",
      "outputs": [
        {
          "internalType": "bytes32",
          "name": "",
          "type": "bytes32"
        }
      ],
      "stateMutability": "view",
      "type": "function",
      "constant": true
    },
    {
      "inputs": [
        {
          "internalType": "bool",
          "name": "_newValue",
          "type": "bool"
        }
      ],
      "name": "setRequireAssetSubdomain",
      "outputs": [],
      "stateMutability": "nonpayable",
      "type": "function"
    },
    {
      "inputs": [
        {
          "internalType": "bool",
          "name": "_newValue",
          "type": "bool"
        }
      ],
      "name": "setRequireAssetValidation",
      "outputs": [],
      "stateMutability": "nonpayable",
      "type": "function"
    },
    {
      "inputs": [
        {
          "internalType": "bool",
          "name": "_newValue",
          "type": "bool"
        }
      ],
      "name": "setRequireSaleStrategyPerAsset",
      "outputs": [],
      "stateMutability": "nonpayable",
      "type": "function"
    },
    {
      "inputs": [
        {
          "internalType": "bool",
          "name": "_newValue",
          "type": "bool"
        }
      ],
      "name": "setRequireSameCurrencyPerAsset",
      "outputs": [],
      "stateMutability": "nonpayable",
      "type": "function"
    },
    {
      "inputs": [
        {
          "internalType": "bool",
          "name": "_newValue",
          "type": "bool"
        }
      ],
      "name": "setRequireWhitelistedAsset",
      "outputs": [],
      "stateMutability": "nonpayable",
      "type": "function"
    },
    {
      "inputs": [
        {
          "internalType": "bool",
          "name": "_newValue",
          "type": "bool"
        }
      ],
      "name": "setRequireWhitelistedAssetProvider",
      "outputs": [],
      "stateMutability": "nonpayable",
      "type": "function"
    },
    {
      "inputs": [
        {
          "internalType": "bool",
          "name": "_newValue",
          "type": "bool"
        }
      ],
      "name": "setSupportsStakingSlashing",
      "outputs": [],
      "stateMutability": "nonpayable",
      "type": "function"
    },
    {
      "inputs": [
        {
          "internalType": "bytes4",
          "name": "interfaceId",
          "type": "bytes4"
        }
      ],
      "name": "supportsInterface",
      "outputs": [
        {
          "internalType": "bool",
          "name": "",
          "type": "bool"
        }
      ],
      "stateMutability": "view",
      "type": "function",
      "constant": true
    },
    {
      "inputs": [
        {
          "internalType": "address",
          "name": "newOwner",
          "type": "address"
        }
      ],
      "name": "transferOwnership",
      "outputs": [],
      "stateMutability": "nonpayable",
      "type": "function"
    },
    {
      "inputs": [],
      "name": "rns",
      "outputs": [
        {
          "internalType": "contract IRNS",
          "name": "",
          "type": "address"
        }
      ],
      "stateMutability": "view",
      "type": "function",
      "constant": true
    },
    {
      "inputs": [
        {
          "internalType": "contract IRNS",
          "name": "rns_",
          "type": "address"
        }
      ],
      "name": "setRNSRegistry",
      "outputs": [],
      "stateMutability": "nonpayable",
      "type": "function"
    },
    {
      "inputs": [
        {
          "internalType": "bytes32",
          "name": "rnsDomainNode",
          "type": "bytes32"
        }
      ],
      "name": "assignRnsDomain",
      "outputs": [],
      "stateMutability": "nonpayable",
      "type": "function"
    },
    {
      "inputs": [
        {
          "internalType": "bytes32",
          "name": "label",
          "type": "bytes32"
        }
      ],
      "name": "createSubdomain",
      "outputs": [],
      "stateMutability": "nonpayable",
      "type": "function"
    },
    {
      "inputs": [],
      "name": "getRnsNameGenerationStrategy",
      "outputs": [
        {
          "internalType": "contract RNSNameGenerationStrategy",
          "name": "",
          "type": "address"
        }
      ],
      "stateMutability": "view",
      "type": "function",
      "constant": true
    },
    {
      "inputs": [
        {
          "internalType": "address",
          "name": "_strategy",
          "type": "address"
        }
      ],
      "name": "assignRnsNameGenerationStrategy",
      "outputs": [],
      "stateMutability": "nonpayable",
      "type": "function"
    },
    {
      "inputs": [
        {
          "internalType": "address",
          "name": "_tokenERC20",
          "type": "address"
        }
      ],
      "name": "isAcceptedCurrency",
      "outputs": [
        {
          "internalType": "bool",
          "name": "",
          "type": "bool"
        }
      ],
      "stateMutability": "view",
      "type": "function",
      "constant": true
    },
    {
      "inputs": [
        {
          "internalType": "address",
          "name": "_tokenERC20",
          "type": "address"
        }
      ],
      "name": "addAcceptedCurrency",
      "outputs": [],
      "stateMutability": "nonpayable",
      "type": "function"
    },
    {
      "inputs": [
        {
          "internalType": "address",
          "name": "_tokenERC20",
          "type": "address"
        }
      ],
      "name": "removeAcceptedCurrency",
      "outputs": [],
      "stateMutability": "nonpayable",
      "type": "function"
    },
    {
      "inputs": [
        {
          "internalType": "address",
          "name": "_to",
          "type": "address"
        },
        {
          "internalType": "int256",
          "name": "amount",
          "type": "int256"
        }
      ],
      "name": "withdraw",
      "outputs": [],
      "stateMutability": "nonpayable",
      "type": "function"
    },
    {
      "inputs": [
        {
          "internalType": "address",
          "name": "assetValidator",
          "type": "address"
        },
        {
          "internalType": "address",
          "name": "token_",
          "type": "address"
        }
      ],
      "name": "approveAsset",
      "outputs": [],
      "stateMutability": "nonpayable",
      "type": "function"
    },
    {
      "inputs": [
        {
          "internalType": "address",
          "name": "assetValidator",
          "type": "address"
        },
        {
          "internalType": "address",
          "name": "token_",
          "type": "address"
        }
      ],
      "name": "rejectAsset",
      "outputs": [],
      "stateMutability": "nonpayable",
      "type": "function"
    },
    {
      "inputs": [
        {
          "internalType": "address",
          "name": "token_",
          "type": "address"
        }
      ],
      "name": "registerAsset",
      "outputs": [],
      "stateMutability": "nonpayable",
      "type": "function"
    },
    {
      "inputs": [
        {
          "internalType": "address",
          "name": "token_",
          "type": "address"
        }
      ],
      "name": "sellAsset",
      "outputs": [
        {
          "internalType": "bool",
          "name": "",
          "type": "bool"
        }
      ],
      "stateMutability": "nonpayable",
      "type": "function"
    },
    {
      "inputs": [
        {
          "internalType": "address",
          "name": "_assetValidatorManagerAddr",
          "type": "address"
        }
      ],
      "name": "addAssetValidatorManager",
      "outputs": [],
      "stateMutability": "nonpayable",
      "type": "function"
    },
    {
      "inputs": [
        {
          "internalType": "address",
          "name": "_assetValidatorAddr",
          "type": "address"
        }
      ],
      "name": "addAssetValidator",
      "outputs": [],
      "stateMutability": "nonpayable",
      "type": "function"
    },
    {
      "inputs": [
        {
          "internalType": "address",
          "name": "_assetProviderManagerAddr",
          "type": "address"
        }
      ],
      "name": "addAssetProviderManager",
      "outputs": [],
      "stateMutability": "nonpayable",
      "type": "function"
    },
    {
      "inputs": [
        {
          "internalType": "address",
          "name": "_assetProviderAddr",
          "type": "address"
        }
      ],
      "name": "addAssetProvider",
      "outputs": [],
      "stateMutability": "nonpayable",
      "type": "function"
    },
    {
      "inputs": [
        {
          "internalType": "address",
          "name": "_strategy",
          "type": "address"
        }
      ],
      "name": "assignOrderIdGeneratorStrategy",
      "outputs": [],
      "stateMutability": "nonpayable",
      "type": "function"
    },
    {
      "inputs": [
        {
          "internalType": "uint256",
          "name": "_orderId",
          "type": "uint256"
        }
      ],
      "name": "getOrder",
      "outputs": [
        {
          "components": [
            {
              "internalType": "int256",
              "name": "orderId",
              "type": "int256"
            },
            {
              "internalType": "enum OrderStatus",
              "name": "status",
              "type": "uint8"
            },
            {
              "internalType": "contract ISaleStrategy",
              "name": "strategy",
              "type": "address"
            },
            {
              "internalType": "int256",
              "name": "blockNumber",
              "type": "int256"
            },
            {
              "internalType": "uint256",
              "name": "price",
              "type": "uint256"
            },
            {
              "internalType": "contract IERC20",
              "name": "currency",
              "type": "address"
            },
            {
              "internalType": "address",
              "name": "provider",
              "type": "address"
            }
          ],
          "internalType": "struct Order",
          "name": "",
          "type": "tuple"
        }
      ],
      "stateMutability": "view",
      "type": "function",
      "constant": true
    }
  ],
  "bytecode": "0x60806040523480156200001157600080fd5b5060405162005c3238038062005c3283398181016040528101906200003791906200081f565b868686868686866200005e620000526200051c60201b60201c565b6200052460201b60201c565b6000339050620000957f6270edb7c868f86fda4adedba75108201087268ea345934db8bad688e1feb91b80620005ea60201b60201c565b620000e77fb346b2ddc13f08bd9685b83a95304a79a2caac0aa7aa64129e1ae9f4361b46617f6270edb7c868f86fda4adedba75108201087268ea345934db8bad688e1feb91b620005ea60201b60201c565b620001197f6270edb7c868f86fda4adedba75108201087268ea345934db8bad688e1feb91b826200064d60201b60201c565b6200014b7fb346b2ddc13f08bd9685b83a95304a79a2caac0aa7aa64129e1ae9f4361b4661826200064d60201b60201c565b6200017d7f9c6e3ae929b539a99db03120eac7d9f862d68479b44f1eec05ab6036fcf56830826200064d60201b60201c565b620001af7f64f0a835d00f6a21d23b1248b75cb6dc19e83a685a88d46057fdbbc036c5c9bd826200064d60201b60201c565b620001e17f31e44e7763cc54215b453a052743c504bdb2e0f29f465a4651620cb67f255478826200064d60201b60201c565b620002137ff2c59059e786c9112f34fa3250bdc3f52a4fe6c6a14d1b1f6a4db790401d2227826200064d60201b60201c565b620002657f9c6e3ae929b539a99db03120eac7d9f862d68479b44f1eec05ab6036fcf568307fb346b2ddc13f08bd9685b83a95304a79a2caac0aa7aa64129e1ae9f4361b4661620005ea60201b60201c565b620002b77f64f0a835d00f6a21d23b1248b75cb6dc19e83a685a88d46057fdbbc036c5c9bd7fb346b2ddc13f08bd9685b83a95304a79a2caac0aa7aa64129e1ae9f4361b4661620005ea60201b60201c565b620003097f31e44e7763cc54215b453a052743c504bdb2e0f29f465a4651620cb67f2554787fb346b2ddc13f08bd9685b83a95304a79a2caac0aa7aa64129e1ae9f4361b4661620005ea60201b60201c565b6200035b7ff2c59059e786c9112f34fa3250bdc3f52a4fe6c6a14d1b1f6a4db790401d22277fb346b2ddc13f08bd9685b83a95304a79a2caac0aa7aa64129e1ae9f4361b4661620005ea60201b60201c565b620003ad7f85501a9bce4ed8623c71a1fc2dceae05ca9cf04f4f16d8c0cb48ee13f391c7877f64f0a835d00f6a21d23b1248b75cb6dc19e83a685a88d46057fdbbc036c5c9bd620005ea60201b60201c565b620003ff7fe91e69686af56c584e188c4128cbaf29402b5eceaf4d71f2e4497f57e80dea827f31e44e7763cc54215b453a052743c504bdb2e0f29f465a4651620cb67f255478620005ea60201b60201c565b620004517f9912c1d6b1ea03b35eeb42d0f550cb3a7884e42777926e1d44004ca37a0668e77ff2c59059e786c9112f34fa3250bdc3f52a4fe6c6a14d1b1f6a4db790401d2227620005ea60201b60201c565b5086600160146101000a81548160ff02191690831515021790555085600160156101000a81548160ff02191690831515021790555084600160166101000a81548160ff02191690831515021790555083600160176101000a81548160ff02191690831515021790555082600160186101000a81548160ff02191690831515021790555081600160196101000a81548160ff021916908315150217905550806001601a6101000a81548160ff0219169083151502179055505050505050505050505050505050620008d2565b600033905090565b6000600160009054906101000a900473ffffffffffffffffffffffffffffffffffffffff16905081600160006101000a81548173ffffffffffffffffffffffffffffffffffffffff021916908373ffffffffffffffffffffffffffffffffffffffff1602179055508173ffffffffffffffffffffffffffffffffffffffff168173ffffffffffffffffffffffffffffffffffffffff167f8be0079c531659141344cd1fd0a4f28419497f9722a3daafe3b4186f6b6457e060405160405180910390a35050565b6000620005fd836200066360201b60201c565b905081600080858152602001908152602001600020600101819055508181847fbd79b86ffe0ab8e8776151514217cd7cacd52c909f66475c3af44e129f0b00ff60405160405180910390a4505050565b6200065f82826200068260201b60201c565b5050565b6000806000838152602001908152602001600020600101549050919050565b6200069482826200077360201b60201c565b6200076f57600160008084815260200190815260200160002060000160008373ffffffffffffffffffffffffffffffffffffffff1673ffffffffffffffffffffffffffffffffffffffff16815260200190815260200160002060006101000a81548160ff021916908315150217905550620007146200051c60201b60201c565b73ffffffffffffffffffffffffffffffffffffffff168173ffffffffffffffffffffffffffffffffffffffff16837f2f8788117e7eff1d82e926ec794901d17c78024a50270940304540a733656f0d60405160405180910390a45b5050565b600080600084815260200190815260200160002060000160008373ffffffffffffffffffffffffffffffffffffffff1673ffffffffffffffffffffffffffffffffffffffff16815260200190815260200160002060009054906101000a900460ff16905092915050565b600080fd5b60008115159050919050565b620007f981620007e2565b81146200080557600080fd5b50565b6000815190506200081981620007ee565b92915050565b600080600080600080600060e0888a031215620008415762000840620007dd565b5b6000620008518a828b0162000808565b9750506020620008648a828b0162000808565b9650506040620008778a828b0162000808565b95505060606200088a8a828b0162000808565b94505060806200089d8a828b0162000808565b93505060a0620008b08a828b0162000808565b92505060c0620008c38a828b0162000808565b91505092959891949750929550565b61535080620008e26000396000f3fe608060405234801561001057600080fd5b506004361061043e5760003560e01c80636dda56c111610236578063a76b0e951161013b578063d307294c116100c3578063e71e0f9011610087578063e71e0f9014610d15578063e8f8155f14610d31578063f253f7c114610d61578063f2a6d94314610d7d578063f2fde38b14610dad5761043e565b8063d307294c14610c73578063d312998f14610c8f578063d4ad70e414610cab578063d547741f14610cdb578063e6c44df914610cf75761043e565b8063c99911761161010a578063c999117614610bd1578063cc57afde14610bed578063cc92084d14610c0b578063d09ef24114610c27578063d2879f4014610c575761043e565b8063a76b0e9514610b61578063ab638cf314610b7d578063abec9dcf14610b99578063c445d80314610bb55761043e565b80638da5cb5b116101be578063987ea8991161018d578063987ea89914610ad157806398f065ff14610aed5780639f7149e714610b09578063a217fddf14610b27578063a5f253c414610b455761043e565b80638da5cb5b14610a4b57806391d1485414610a695780639201aed814610a9957806392c5c40714610ab55761043e565b80637746a5dc116102055780637746a5dc146109bf5780637da7d3f1146109db5780638020caf3146109f75780638328fd3114610a1357806387dbdfcb14610a2f5761043e565b80636dda56c11461094b578063715018a61461097b57806374ba8340146109855780637589ccdb146109a15761043e565b80634a65abc411610347578063636baeab116102cf5780636649b502116102935780636649b502146108bb57806368d05e5f146108d957806368fa8134146108f7578063691db299146109135780636d42ef3e1461092f5761043e565b8063636baeab1461080557806363b631a6146108215780636487aa111461083d57806365418c3c1461086d578063663b44c51461089d5761043e565b806353dac9301161031657806353dac930146107615780635432c1dc1461077d57806359014773146107995780635c88dcc7146107c95780635d44ef0f146107e75761043e565b80634a65abc4146106f15780634ee1026b1461070d57806351a15fb51461072957806353649cea146107455761043e565b806330b8b2c6116103ca5780633d339691116103995780633d3396911461063d5780633d87f3e5146106595780633edb88661461067557806342d06c77146106a5578063479a9b97146106d55761043e565b806330b8b2c6146105a557806333968ded146105d5578063358bca771461060557806336568abe146106215761043e565b8063176e75a111610411578063176e75a1146104db5780631db79e891461050b578063248a9ca31461053b57806326a2fcdc1461056b5780632f2ff15d146105895761043e565b806301ffc9a71461044357806303adf4491461047357806306e2a85c1461048f5780630a2eb301146104ab575b600080fd5b61045d60048036038101906104589190614218565b610dc9565b60405161046a9190614260565b60405180910390f35b61048d600480360381019061048891906142d9565b610e43565b005b6104a960048036038101906104a491906142d9565b610fdb565b005b6104c560048036038101906104c091906142d9565b611008565b6040516104d29190614260565b60405180910390f35b6104f560048036038101906104f091906142d9565b61103b565b6040516105029190614260565b60405180910390f35b610525600480360381019061052091906142d9565b6110ce565b6040516105329190614260565b60405180910390f35b6105556004803603810190610550919061433c565b611101565b6040516105629190614378565b60405180910390f35b610573611120565b60405161058091906143f2565b60405180910390f35b6105a3600480360381019061059e919061440d565b61114a565b005b6105bf60048036038101906105ba91906142d9565b611173565b6040516105cc9190614632565b60405180910390f35b6105ef60048036038101906105ea91906142d9565b611337565b6040516105fc9190614260565b60405180910390f35b61061f600480360381019061061a91906142d9565b61133e565b005b61063b6004803603810190610636919061440d565b61136b565b005b61065760048036038101906106529190614692565b6113ee565b005b610673600480360381019061066e919061433c565b6114ae565b005b61068f600480360381019061068a91906142d9565b61163d565b60405161069c9190614260565b60405180910390f35b6106bf60048036038101906106ba91906142d9565b611670565b6040516106cc9190614260565b60405180910390f35b6106ef60048036038101906106ea91906146eb565b6116c6565b005b61070b600480360381019061070691906146eb565b611716565b005b61072760048036038101906107229190614718565b611766565b005b610743600480360381019061073e91906142d9565b61192c565b005b61075f600480360381019061075a91906142d9565b611959565b005b61077b600480360381019061077691906142d9565b61199d565b005b610797600480360381019061079291906142d9565b6119ca565b005b6107b360048036038101906107ae91906142d9565b611b1d565b6040516107c09190614260565b60405180910390f35b6107d1611b50565b6040516107de9190614260565b60405180910390f35b6107ef611b67565b6040516107fc9190614260565b60405180910390f35b61081f600480360381019061081a91906142d9565b611b7e565b005b61083b600480360381019061083691906142d9565b611c33565b005b610857600480360381019061085291906142d9565b611c60565b6040516108649190614260565b60405180910390f35b610887600480360381019061088291906142d9565b611c93565b6040516108949190614260565b60405180910390f35b6108a5611cc6565b6040516108b29190614779565b60405180910390f35b6108c3611cf0565b6040516108d09190614260565b60405180910390f35b6108e1611d07565b6040516108ee9190614260565b60405180910390f35b610911600480360381019061090c91906142d9565b611d1e565b005b61092d600480360381019061092891906146eb565b611e6f565b005b610949600480360381019061094491906142d9565b611ebf565b005b610965600480360381019061096091906142d9565b611eec565b6040516109729190614260565b60405180910390f35b610983611f4b565b005b61099f600480360381019061099a91906142d9565b611fd3565b005b6109a96120e9565b6040516109b69190614260565b60405180910390f35b6109d960048036038101906109d4919061433c565b612100565b005b6109f560048036038101906109f091906147ca565b612212565b005b610a116004803603810190610a0c91906142d9565b612216565b005b610a2d6004803603810190610a289190614718565b6122cb565b005b610a496004803603810190610a4491906142d9565b612491565b005b610a536124be565b604051610a609190614819565b60405180910390f35b610a836004803603810190610a7e919061440d565b6124e8565b604051610a909190614260565b60405180910390f35b610ab36004803603810190610aae91906142d9565b612552565b005b610acf6004803603810190610aca91906142d9565b612607565b005b610aeb6004803603810190610ae691906142d9565b612634565b005b610b076004803603810190610b0291906142d9565b612661565b005b610b11612664565b604051610b1e9190614260565b60405180910390f35b610b2f61267b565b604051610b3c9190614378565b60405180910390f35b610b5f6004803603810190610b5a91906146eb565b612682565b005b610b7b6004803603810190610b7691906142d9565b6126d2565b005b610b976004803603810190610b9291906146eb565b612825565b005b610bb36004803603810190610bae91906142d9565b612875565b005b610bcf6004803603810190610bca91906146eb565b612b12565b005b610beb6004803603810190610be691906142d9565b612b62565b005b610bf5612cb3565b604051610c029190614378565b60405180910390f35b610c256004803603810190610c2091906142d9565b612cb9565b005b610c416004803603810190610c3c919061486a565b612d65565b604051610c4e91906149cd565b60405180910390f35b610c716004803603810190610c6c91906146eb565b612eed565b005b610c8d6004803603810190610c8891906142d9565b612f3d565b005b610ca96004803603810190610ca491906142d9565b612ff2565b005b610cc56004803603810190610cc091906142d9565b613186565b604051610cd29190614260565b60405180910390f35b610cf56004803603810190610cf0919061440d565b6131b9565b005b610cff6131e2565b604051610d0c9190614260565b60405180910390f35b610d2f6004803603810190610d2a91906142d9565b6131f9565b005b610d4b6004803603810190610d4691906142d9565b61330f565b604051610d589190614260565b60405180910390f35b610d7b6004803603810190610d7691906142d9565b613342565b005b610d976004803603810190610d9291906142d9565b61336f565b604051610da49190614260565b60405180910390f35b610dc76004803603810190610dc291906142d9565b6133a2565b005b60007f7965db0b000000000000000000000000000000000000000000000000000000007bffffffffffffffffffffffffffffffffffffffffffffffffffffffff1916827bffffffffffffffffffffffffffffffffffffffffffffffffffffffff19161480610e3c5750610e3b826135ac565b5b9050919050565b806000806004811115610e5957610e5861455c565b5b600460008473ffffffffffffffffffffffffffffffffffffffff1673ffffffffffffffffffffffffffffffffffffffff16815260200190815260200160002060010160009054906101000a900460ff166004811115610ebb57610eba61455c565b5b14610efb576040517f08c379a0000000000000000000000000000000000000000000000000000000008152600401610ef290614a45565b60405180910390fd5b600160149054906101000a900460ff1615610f1b57610f1983613616565b505b600160159054906101000a900460ff1615610f3a57610f386136e8565b505b600160169054906101000a900460ff1615610f5f57610f5a836001613724565b610fd6565b610f6a836002613724565b3073ffffffffffffffffffffffffffffffffffffffff1663d312998f846040518263ffffffff1660e01b8152600401610fa39190614819565b600060405180830381600087803b158015610fbd57600080fd5b505af1158015610fd1573d6000803e3d6000fd5b505050505b505050565b6110057fe91e69686af56c584e188c4128cbaf29402b5eceaf4d71f2e4497f57e80dea82826131b9565b50565b60006110347fb346b2ddc13f08bd9685b83a95304a79a2caac0aa7aa64129e1ae9f4361b4661836124e8565b9050919050565b6000600260003373ffffffffffffffffffffffffffffffffffffffff1673ffffffffffffffffffffffffffffffffffffffff16815260200190815260200160002060008373ffffffffffffffffffffffffffffffffffffffff1673ffffffffffffffffffffffffffffffffffffffff16815260200190815260200160002060009054906101000a900460ff169050919050565b60006110fa7f6270edb7c868f86fda4adedba75108201087268ea345934db8bad688e1feb91b836124e8565b9050919050565b6000806000838152602001908152602001600020600101549050919050565b6000600760009054906101000a900473ffffffffffffffffffffffffffffffffffffffff16905090565b61115382611101565b6111648161115f613792565b61379a565b61116e8383613837565b505050565b61117b614002565b600460008373ffffffffffffffffffffffffffffffffffffffff1673ffffffffffffffffffffffffffffffffffffffff16815260200190815260200160002060405180606001604052908160008201805480602002602001604051908101604052809291908181526020016000905b828210156112e357838290600052602060002090600202016040518060600160405290816000820160009054906101000a900473ffffffffffffffffffffffffffffffffffffffff1673ffffffffffffffffffffffffffffffffffffffff1673ffffffffffffffffffffffffffffffffffffffff1681526020016001820160009054906101000a900473ffffffffffffffffffffffffffffffffffffffff1673ffffffffffffffffffffffffffffffffffffffff1673ffffffffffffffffffffffffffffffffffffffff1681526020016001820160149054906101000a900460ff161515151581525050815260200190600101906111ea565b5050505081526020016001820160009054906101000a900460ff1660048111156113105761130f61455c565b5b60048111156113225761132161455c565b5b81526020016002820154815250509050919050565b6000919050565b6113687f9c6e3ae929b539a99db03120eac7d9f862d68479b44f1eec05ab6036fcf56830826131b9565b50565b611373613792565b73ffffffffffffffffffffffffffffffffffffffff168173ffffffffffffffffffffffffffffffffffffffff16146113e0576040517f08c379a00000000000000000000000000000000000000000000000000000000081526004016113d790614ad7565b60405180910390fd5b6113ea8282613917565b5050565b6113f6613792565b73ffffffffffffffffffffffffffffffffffffffff166114146124be565b73ffffffffffffffffffffffffffffffffffffffff161461146a576040517f08c379a000000000000000000000000000000000000000000000000000000000815260040161146190614b43565b60405180910390fd5b80600560006101000a81548173ffffffffffffffffffffffffffffffffffffffff021916908373ffffffffffffffffffffffffffffffffffffffff16021790555050565b6114b6613792565b73ffffffffffffffffffffffffffffffffffffffff166114d46124be565b73ffffffffffffffffffffffffffffffffffffffff161461152a576040517f08c379a000000000000000000000000000000000000000000000000000000000815260040161152190614b43565b60405180910390fd5b3373ffffffffffffffffffffffffffffffffffffffff16600560009054906101000a900473ffffffffffffffffffffffffffffffffffffffff1673ffffffffffffffffffffffffffffffffffffffff166302571be3836040518263ffffffff1660e01b815260040161159c9190614378565b602060405180830381865afa1580156115b9573d6000803e3d6000fd5b505050506040513d601f19601f820116820180604052508101906115dd9190614b78565b73ffffffffffffffffffffffffffffffffffffffff1614611633576040517f08c379a000000000000000000000000000000000000000000000000000000000815260040161162a90614bf1565b60405180910390fd5b8060068190555050565b60006116697f64f0a835d00f6a21d23b1248b75cb6dc19e83a685a88d46057fdbbc036c5c9bd836124e8565b9050919050565b6000600360008373ffffffffffffffffffffffffffffffffffffffff1673ffffffffffffffffffffffffffffffffffffffff16815260200190815260200160002060009054906101000a900460ff169050919050565b7fb346b2ddc13f08bd9685b83a95304a79a2caac0aa7aa64129e1ae9f4361b46616116f8816116f3613792565b61379a565b816001601a6101000a81548160ff0219169083151502179055505050565b7fb346b2ddc13f08bd9685b83a95304a79a2caac0aa7aa64129e1ae9f4361b466161174881611743613792565b61379a565b81600160146101000a81548160ff0219169083151502179055505050565b600160169054906101000a900460ff166040518060400160405280601281526020017f526f6c65206e6f742072657175697265642e0000000000000000000000000000815250906117ed576040517f08c379a00000000000000000000000000000000000000000000000000000000081526004016117e49190614c99565b60405180910390fd5b507f85501a9bce4ed8623c71a1fc2dceae05ca9cf04f4f16d8c0cb48ee13f391c7876118208161181b613792565b61379a565b8160018060048111156118365761183561455c565b5b600460008473ffffffffffffffffffffffffffffffffffffffff1673ffffffffffffffffffffffffffffffffffffffff16815260200190815260200160002060010160009054906101000a900460ff1660048111156118985761189761455c565b5b146118d8576040517f08c379a00000000000000000000000000000000000000000000000000000000081526004016118cf90614a45565b60405180910390fd5b3373ffffffffffffffffffffffffffffffffffffffff168573ffffffffffffffffffffffffffffffffffffffff16141561191a57611915846139f8565b611925565b6119248486613a07565b5b5050505050565b6119567f85501a9bce4ed8623c71a1fc2dceae05ca9cf04f4f16d8c0cb48ee13f391c787826131b9565b50565b80600760006101000a81548173ffffffffffffffffffffffffffffffffffffffff021916908373ffffffffffffffffffffffffffffffffffffffff16021790555050565b6119c77f31e44e7763cc54215b453a052743c504bdb2e0f29f465a4651620cb67f2554788261114a565b50565b600160169054906101000a900460ff166040518060400160405280601281526020017f526f6c65206e6f742072657175697265642e000000000000000000000000000081525090611a51576040517f08c379a0000000000000000000000000000000000000000000000000000000008152600401611a489190614c99565b60405180910390fd5b507f85501a9bce4ed8623c71a1fc2dceae05ca9cf04f4f16d8c0cb48ee13f391c787611a8481611a7f613792565b61379a565b6000600260003373ffffffffffffffffffffffffffffffffffffffff1673ffffffffffffffffffffffffffffffffffffffff16815260200190815260200160002060008473ffffffffffffffffffffffffffffffffffffffff1673ffffffffffffffffffffffffffffffffffffffff16815260200190815260200160002060006101000a81548160ff0219169083151502179055505050565b6000611b497f31e44e7763cc54215b453a052743c504bdb2e0f29f465a4651620cb67f255478836124e8565b9050919050565b6000600160169054906101000a900460ff16905090565b6000600160189054906101000a900460ff16905090565b600160169054906101000a900460ff166040518060400160405280601281526020017f526f6c65206e6f742072657175697265642e000000000000000000000000000081525090611c05576040517f08c379a0000000000000000000000000000000000000000000000000000000008152600401611bfc9190614c99565b60405180910390fd5b50611c307f85501a9bce4ed8623c71a1fc2dceae05ca9cf04f4f16d8c0cb48ee13f391c7878261114a565b50565b611c5d7f9912c1d6b1ea03b35eeb42d0f550cb3a7884e42777926e1d44004ca37a0668e7826131b9565b50565b6000611c8c7f9c6e3ae929b539a99db03120eac7d9f862d68479b44f1eec05ab6036fcf56830836124e8565b9050919050565b6000611cbf7f85501a9bce4ed8623c71a1fc2dceae05ca9cf04f4f16d8c0cb48ee13f391c787836124e8565b9050919050565b6000600560009054906101000a900473ffffffffffffffffffffffffffffffffffffffff16905090565b60006001601a9054906101000a900460ff16905090565b6000600160159054906101000a900460ff16905090565b611d26613792565b73ffffffffffffffffffffffffffffffffffffffff16611d446124be565b73ffffffffffffffffffffffffffffffffffffffff1614611d9a576040517f08c379a0000000000000000000000000000000000000000000000000000000008152600401611d9190614b43565b60405180910390fd5b611dc47fb346b2ddc13f08bd9685b83a95304a79a2caac0aa7aa64129e1ae9f4361b4661826131b9565b611dee7f9c6e3ae929b539a99db03120eac7d9f862d68479b44f1eec05ab6036fcf56830826131b9565b611e187f64f0a835d00f6a21d23b1248b75cb6dc19e83a685a88d46057fdbbc036c5c9bd826131b9565b611e427f31e44e7763cc54215b453a052743c504bdb2e0f29f465a4651620cb67f255478826131b9565b611e6c7ff2c59059e786c9112f34fa3250bdc3f52a4fe6c6a14d1b1f6a4db790401d2227826131b9565b50565b7fb346b2ddc13f08bd9685b83a95304a79a2caac0aa7aa64129e1ae9f4361b4661611ea181611e9c613792565b61379a565b81600160156101000a81548160ff0219169083151502179055505050565b611ee97f64f0a835d00f6a21d23b1248b75cb6dc19e83a685a88d46057fdbbc036c5c9bd826131b9565b50565b600080600860008473ffffffffffffffffffffffffffffffffffffffff1673ffffffffffffffffffffffffffffffffffffffff16815260200190815260200160002060020160009054906101000a900460ff1660ff1614159050919050565b611f53613792565b73ffffffffffffffffffffffffffffffffffffffff16611f716124be565b73ffffffffffffffffffffffffffffffffffffffff1614611fc7576040517f08c379a0000000000000000000000000000000000000000000000000000000008152600401611fbe90614b43565b60405180910390fd5b611fd16000613a17565b565b7f9c6e3ae929b539a99db03120eac7d9f862d68479b44f1eec05ab6036fcf5683061200581612000613792565b61379a565b600160149054906101000a900460ff166040518060400160405280601681526020017f57686974656c697374206e6f74207265717569726564000000000000000000008152509061208c576040517f08c379a00000000000000000000000000000000000000000000000000000000081526004016120839190614c99565b60405180910390fd5b506001600360008473ffffffffffffffffffffffffffffffffffffffff1673ffffffffffffffffffffffffffffffffffffffff16815260200190815260200160002060006101000a81548160ff0219169083151502179055505050565b6000600160199054906101000a900460ff16905090565b612108613792565b73ffffffffffffffffffffffffffffffffffffffff166121266124be565b73ffffffffffffffffffffffffffffffffffffffff161461217c576040517f08c379a000000000000000000000000000000000000000000000000000000000815260040161217390614b43565b60405180910390fd5b600560009054906101000a900473ffffffffffffffffffffffffffffffffffffffff1673ffffffffffffffffffffffffffffffffffffffff166306ab592360065483306040518463ffffffff1660e01b81526004016121dd93929190614cbb565b600060405180830381600087803b1580156121f757600080fd5b505af115801561220b573d6000803e3d6000fd5b5050505050565b5050565b600160159054906101000a900460ff166040518060400160405280601281526020017f526f6c65206e6f742072657175697265642e00000000000000000000000000008152509061229d576040517f08c379a00000000000000000000000000000000000000000000000000000000081526004016122949190614c99565b60405180910390fd5b506122c87ff2c59059e786c9112f34fa3250bdc3f52a4fe6c6a14d1b1f6a4db790401d22278261114a565b50565b600160169054906101000a900460ff166040518060400160405280601281526020017f526f6c65206e6f742072657175697265642e000000000000000000000000000081525090612352576040517f08c379a00000000000000000000000000000000000000000000000000000000081526004016123499190614c99565b60405180910390fd5b507f85501a9bce4ed8623c71a1fc2dceae05ca9cf04f4f16d8c0cb48ee13f391c78761238581612380613792565b61379a565b81600180600481111561239b5761239a61455c565b5b600460008473ffffffffffffffffffffffffffffffffffffffff1673ffffffffffffffffffffffffffffffffffffffff16815260200190815260200160002060010160009054906101000a900460ff1660048111156123fd576123fc61455c565b5b1461243d576040517f08c379a000000000000000000000000000000000000000000000000000000000815260040161243490614a45565b60405180910390fd5b3373ffffffffffffffffffffffffffffffffffffffff168573ffffffffffffffffffffffffffffffffffffffff16141561247f5761247a84613add565b61248a565b6124898486613aec565b5b5050505050565b6124bb7f31e44e7763cc54215b453a052743c504bdb2e0f29f465a4651620cb67f255478826131b9565b50565b6000600160009054906101000a900473ffffffffffffffffffffffffffffffffffffffff16905090565b600080600084815260200190815260200160002060000160008373ffffffffffffffffffffffffffffffffffffffff1673ffffffffffffffffffffffffffffffffffffffff16815260200190815260200160002060009054906101000a900460ff16905092915050565b600160159054906101000a900460ff166040518060400160405280601281526020017f526f6c65206e6f742072657175697265642e0000000000000000000000000000815250906125d9576040517f08c379a00000000000000000000000000000000000000000000000000000000081526004016125d09190614c99565b60405180910390fd5b506126047f9912c1d6b1ea03b35eeb42d0f550cb3a7884e42777926e1d44004ca37a0668e78261114a565b50565b6126317fe91e69686af56c584e188c4128cbaf29402b5eceaf4d71f2e4497f57e80dea828261114a565b50565b61265e7f9c6e3ae929b539a99db03120eac7d9f862d68479b44f1eec05ab6036fcf568308261114a565b50565b50565b6000600160149054906101000a900460ff16905090565b6000801b81565b7fb346b2ddc13f08bd9685b83a95304a79a2caac0aa7aa64129e1ae9f4361b46616126b4816126af613792565b61379a565b81600160196101000a81548160ff0219169083151502179055505050565b600160169054906101000a900460ff166040518060400160405280601281526020017f526f6c65206e6f742072657175697265642e000000000000000000000000000081525090612759576040517f08c379a00000000000000000000000000000000000000000000000000000000081526004016127509190614c99565b60405180910390fd5b507f85501a9bce4ed8623c71a1fc2dceae05ca9cf04f4f16d8c0cb48ee13f391c78761278c81612787613792565b61379a565b6001600260003373ffffffffffffffffffffffffffffffffffffffff1673ffffffffffffffffffffffffffffffffffffffff16815260200190815260200160002060008473ffffffffffffffffffffffffffffffffffffffff1673ffffffffffffffffffffffffffffffffffffffff16815260200190815260200160002060006101000a81548160ff0219169083151502179055505050565b7fb346b2ddc13f08bd9685b83a95304a79a2caac0aa7aa64129e1ae9f4361b466161285781612852613792565b61379a565b81600160186101000a81548160ff0219169083151502179055505050565b7f31e44e7763cc54215b453a052743c504bdb2e0f29f465a4651620cb67f2554786128a7816128a2613792565b61379a565b60008273ffffffffffffffffffffffffffffffffffffffff166306fdde036040518163ffffffff1660e01b8152600401600060405180830381865afa1580156128f4573d6000803e3d6000fd5b505050506040513d6000823e3d601f19601f8201168201806040525081019061291d9190614e18565b905060008373ffffffffffffffffffffffffffffffffffffffff166395d89b416040518163ffffffff1660e01b8152600401600060405180830381865afa15801561296c573d6000803e3d6000fd5b505050506040513d6000823e3d601f19601f820116820180604052508101906129959190614e18565b905060008473ffffffffffffffffffffffffffffffffffffffff1663313ce5676040518163ffffffff1660e01b8152600401602060405180830381865afa1580156129e4573d6000803e3d6000fd5b505050506040513d601f19601f82011682018060405250810190612a089190614e9a565b905060008160ff1611612a50576040517f08c379a0000000000000000000000000000000000000000000000000000000008152600401612a4790614f13565b60405180910390fd5b60405180606001604052808481526020018381526020018260ff16815250600860008773ffffffffffffffffffffffffffffffffffffffff1673ffffffffffffffffffffffffffffffffffffffff1681526020019081526020016000206000820151816000019080519060200190612ac9929190614038565b506020820151816001019080519060200190612ae6929190614038565b5060408201518160020160006101000a81548160ff021916908360ff1602179055509050505050505050565b7fb346b2ddc13f08bd9685b83a95304a79a2caac0aa7aa64129e1ae9f4361b4661612b4481612b3f613792565b61379a565b81600160166101000a81548160ff0219169083151502179055505050565b612b6a613792565b73ffffffffffffffffffffffffffffffffffffffff16612b886124be565b73ffffffffffffffffffffffffffffffffffffffff1614612bde576040517f08c379a0000000000000000000000000000000000000000000000000000000008152600401612bd590614b43565b60405180910390fd5b612c087fb346b2ddc13f08bd9685b83a95304a79a2caac0aa7aa64129e1ae9f4361b46618261114a565b612c327f9c6e3ae929b539a99db03120eac7d9f862d68479b44f1eec05ab6036fcf568308261114a565b612c5c7f64f0a835d00f6a21d23b1248b75cb6dc19e83a685a88d46057fdbbc036c5c9bd8261114a565b612c867f31e44e7763cc54215b453a052743c504bdb2e0f29f465a4651620cb67f2554788261114a565b612cb07ff2c59059e786c9112f34fa3250bdc3f52a4fe6c6a14d1b1f6a4db790401d22278261114a565b50565b60065481565b7f31e44e7763cc54215b453a052743c504bdb2e0f29f465a4651620cb67f255478612ceb81612ce6613792565b61379a565b600860008373ffffffffffffffffffffffffffffffffffffffff1673ffffffffffffffffffffffffffffffffffffffff16815260200190815260200160002060008082016000612d3b91906140be565b600182016000612d4b91906140be565b6002820160006101000a81549060ff021916905550505050565b612d6d6140fe565b600960008381526020019081526020016000206040518060e0016040529081600082015481526020016001820160009054906101000a900460ff166002811115612dba57612db961455c565b5b6002811115612dcc57612dcb61455c565b5b81526020016001820160019054906101000a900473ffffffffffffffffffffffffffffffffffffffff1673ffffffffffffffffffffffffffffffffffffffff1673ffffffffffffffffffffffffffffffffffffffff16815260200160028201548152602001600382015481526020016004820160009054906101000a900473ffffffffffffffffffffffffffffffffffffffff1673ffffffffffffffffffffffffffffffffffffffff1673ffffffffffffffffffffffffffffffffffffffff1681526020016005820160009054906101000a900473ffffffffffffffffffffffffffffffffffffffff1673ffffffffffffffffffffffffffffffffffffffff1673ffffffffffffffffffffffffffffffffffffffff16815250509050919050565b7fb346b2ddc13f08bd9685b83a95304a79a2caac0aa7aa64129e1ae9f4361b4661612f1f81612f1a613792565b61379a565b81600160176101000a81548160ff0219169083151502179055505050565b600160169054906101000a900460ff166040518060400160405280601281526020017f526f6c65206e6f742072657175697265642e000000000000000000000000000081525090612fc4576040517f08c379a0000000000000000000000000000000000000000000000000000000008152600401612fbb9190614c99565b60405180910390fd5b50612fef7f64f0a835d00f6a21d23b1248b75cb6dc19e83a685a88d46057fdbbc036c5c9bd8261114a565b50565b8060028060048111156130085761300761455c565b5b600460008473ffffffffffffffffffffffffffffffffffffffff1673ffffffffffffffffffffffffffffffffffffffff16815260200190815260200160002060010160009054906101000a900460ff16600481111561306a5761306961455c565b5b146130aa576040517f08c379a00000000000000000000000000000000000000000000000000000000081526004016130a190614a45565b60405180910390fd5b600160199054906101000a900460ff1615613176576000600760009054906101000a900473ffffffffffffffffffffffffffffffffffffffff1673ffffffffffffffffffffffffffffffffffffffff16632fa61cd8856040518263ffffffff1660e01b815260040161311c9190614819565b6020604051808303816000875af115801561313b573d6000803e3d6000fd5b505050506040513d601f19601f8201168201806040525081019061315f9190614f48565b905061316a81612100565b6131748482613afc565b505b613181836004613724565b505050565b60006131b27ff2c59059e786c9112f34fa3250bdc3f52a4fe6c6a14d1b1f6a4db790401d2227836124e8565b9050919050565b6131c282611101565b6131d3816131ce613792565b61379a565b6131dd8383613917565b505050565b6000600160179054906101000a900460ff16905090565b7f9c6e3ae929b539a99db03120eac7d9f862d68479b44f1eec05ab6036fcf5683061322b81613226613792565b61379a565b600160149054906101000a900460ff166040518060400160405280601681526020017f57686974656c697374206e6f7420726571756972656400000000000000000000815250906132b2576040517f08c379a00000000000000000000000000000000000000000000000000000000081526004016132a99190614c99565b60405180910390fd5b506000600360008473ffffffffffffffffffffffffffffffffffffffff1673ffffffffffffffffffffffffffffffffffffffff16815260200190815260200160002060006101000a81548160ff0219169083151502179055505050565b600061333b7f9912c1d6b1ea03b35eeb42d0f550cb3a7884e42777926e1d44004ca37a0668e7836124e8565b9050919050565b61336c7ff2c59059e786c9112f34fa3250bdc3f52a4fe6c6a14d1b1f6a4db790401d2227826131b9565b50565b600061339b7fe91e69686af56c584e188c4128cbaf29402b5eceaf4d71f2e4497f57e80dea82836124e8565b9050919050565b6133ab81613b47565b6133d57f6270edb7c868f86fda4adedba75108201087268ea345934db8bad688e1feb91b8261114a565b6133ff7fb346b2ddc13f08bd9685b83a95304a79a2caac0aa7aa64129e1ae9f4361b46618261114a565b6134297f9c6e3ae929b539a99db03120eac7d9f862d68479b44f1eec05ab6036fcf568308261114a565b6134537f64f0a835d00f6a21d23b1248b75cb6dc19e83a685a88d46057fdbbc036c5c9bd8261114a565b61347d7f31e44e7763cc54215b453a052743c504bdb2e0f29f465a4651620cb67f2554788261114a565b6134a77ff2c59059e786c9112f34fa3250bdc3f52a4fe6c6a14d1b1f6a4db790401d22278261114a565b60003390506134d67ff2c59059e786c9112f34fa3250bdc3f52a4fe6c6a14d1b1f6a4db790401d2227826131b9565b6135007f31e44e7763cc54215b453a052743c504bdb2e0f29f465a4651620cb67f255478826131b9565b61352a7f64f0a835d00f6a21d23b1248b75cb6dc19e83a685a88d46057fdbbc036c5c9bd826131b9565b6135547f9c6e3ae929b539a99db03120eac7d9f862d68479b44f1eec05ab6036fcf56830826131b9565b61357e7fb346b2ddc13f08bd9685b83a95304a79a2caac0aa7aa64129e1ae9f4361b4661826131b9565b6135a87f6270edb7c868f86fda4adedba75108201087268ea345934db8bad688e1feb91b826131b9565b5050565b60007f01ffc9a7000000000000000000000000000000000000000000000000000000007bffffffffffffffffffffffffffffffffffffffffffffffffffffffff1916827bffffffffffffffffffffffffffffffffffffffffffffffffffffffff1916149050919050565b600081600360008273ffffffffffffffffffffffffffffffffffffffff1673ffffffffffffffffffffffffffffffffffffffff16815260200190815260200160002060009054906101000a900460ff166040518060400160405280601681526020017f41737365742074797065206e6f7420616c6c6f77656400000000000000000000815250906136dd576040517f08c379a00000000000000000000000000000000000000000000000000000000081526004016136d49190614c99565b60405180910390fd5b506001915050919050565b60007f9912c1d6b1ea03b35eeb42d0f550cb3a7884e42777926e1d44004ca37a0668e761371c81613717613792565b61379a565b600191505090565b80600460008473ffffffffffffffffffffffffffffffffffffffff1673ffffffffffffffffffffffffffffffffffffffff16815260200190815260200160002060010160006101000a81548160ff021916908360048111156137895761378861455c565b5b02179055505050565b600033905090565b6137a482826124e8565b613833576137c98173ffffffffffffffffffffffffffffffffffffffff166014613c3f565b6137d78360001c6020613c3f565b6040516020016137e8929190615049565b6040516020818303038152906040526040517f08c379a000000000000000000000000000000000000000000000000000000000815260040161382a9190614c99565b60405180910390fd5b5050565b61384182826124e8565b61391357600160008084815260200190815260200160002060000160008373ffffffffffffffffffffffffffffffffffffffff1673ffffffffffffffffffffffffffffffffffffffff16815260200190815260200160002060006101000a81548160ff0219169083151502179055506138b8613792565b73ffffffffffffffffffffffffffffffffffffffff168173ffffffffffffffffffffffffffffffffffffffff16837f2f8788117e7eff1d82e926ec794901d17c78024a50270940304540a733656f0d60405160405180910390a45b5050565b61392182826124e8565b156139f457600080600084815260200190815260200160002060000160008373ffffffffffffffffffffffffffffffffffffffff1673ffffffffffffffffffffffffffffffffffffffff16815260200190815260200160002060006101000a81548160ff021916908315150217905550613999613792565b73ffffffffffffffffffffffffffffffffffffffff168173ffffffffffffffffffffffffffffffffffffffff16837ff6391f5c32d9c69d2a47ea670b442974b53935d1edc7fd64eb21e047a839171b60405160405180910390a45b5050565b613a0481336000613e7b565b50565b613a1382826000613e7b565b5050565b6000600160009054906101000a900473ffffffffffffffffffffffffffffffffffffffff16905081600160006101000a81548173ffffffffffffffffffffffffffffffffffffffff021916908373ffffffffffffffffffffffffffffffffffffffff1602179055508173ffffffffffffffffffffffffffffffffffffffff168173ffffffffffffffffffffffffffffffffffffffff167f8be0079c531659141344cd1fd0a4f28419497f9722a3daafe3b4186f6b6457e060405160405180910390a35050565b613ae981336001613e7b565b50565b613af882826001613e7b565b5050565b80600460008473ffffffffffffffffffffffffffffffffffffffff1673ffffffffffffffffffffffffffffffffffffffff168152602001908152602001600020600201819055505050565b613b4f613792565b73ffffffffffffffffffffffffffffffffffffffff16613b6d6124be565b73ffffffffffffffffffffffffffffffffffffffff1614613bc3576040517f08c379a0000000000000000000000000000000000000000000000000000000008152600401613bba90614b43565b60405180910390fd5b600073ffffffffffffffffffffffffffffffffffffffff168173ffffffffffffffffffffffffffffffffffffffff161415613c33576040517f08c379a0000000000000000000000000000000000000000000000000000000008152600401613c2a906150f5565b60405180910390fd5b613c3c81613a17565b50565b606060006002836002613c529190615144565b613c5c919061519e565b67ffffffffffffffff811115613c7557613c74614cfc565b5b6040519080825280601f01601f191660200182016040528015613ca75781602001600182028036833780820191505090505b5090507f300000000000000000000000000000000000000000000000000000000000000081600081518110613cdf57613cde6151f4565b5b60200101907effffffffffffffffffffffffffffffffffffffffffffffffffffffffffffff1916908160001a9053507f780000000000000000000000000000000000000000000000000000000000000081600181518110613d4357613d426151f4565b5b60200101907effffffffffffffffffffffffffffffffffffffffffffffffffffffffffffff1916908160001a90535060006001846002613d839190615144565b613d8d919061519e565b90505b6001811115613e2d577f3031323334353637383961626364656600000000000000000000000000000000600f861660108110613dcf57613dce6151f4565b5b1a60f81b828281518110613de657613de56151f4565b5b60200101907effffffffffffffffffffffffffffffffffffffffffffffffffffffffffffff1916908160001a905350600485901c945080613e2690615223565b9050613d90565b5060008414613e71576040517f08c379a0000000000000000000000000000000000000000000000000000000008152600401613e6890615299565b60405180910390fd5b8091505092915050565b613e938382613e8b576003613e8e565b60025b613724565b600060405180606001604052803373ffffffffffffffffffffffffffffffffffffffff1681526020018473ffffffffffffffffffffffffffffffffffffffff1681526020018315158152509050600460008573ffffffffffffffffffffffffffffffffffffffff1673ffffffffffffffffffffffffffffffffffffffff16815260200190815260200160002060000181908060018154018082558091505060019003906000526020600020906002020160009091909190915060008201518160000160006101000a81548173ffffffffffffffffffffffffffffffffffffffff021916908373ffffffffffffffffffffffffffffffffffffffff16021790555060208201518160010160006101000a81548173ffffffffffffffffffffffffffffffffffffffff021916908373ffffffffffffffffffffffffffffffffffffffff16021790555060408201518160010160146101000a81548160ff021916908315150217905550505050505050565b604051806060016040528060608152602001600060048111156140285761402761455c565b5b8152602001600080191681525090565b828054614044906152e8565b90600052602060002090601f01602090048101928261406657600085556140ad565b82601f1061407f57805160ff19168380011785556140ad565b828001600101855582156140ad579182015b828111156140ac578251825591602001919060010190614091565b5b5090506140ba919061418f565b5090565b5080546140ca906152e8565b6000825580601f106140dc57506140fb565b601f0160209004906000526020600020908101906140fa919061418f565b5b50565b6040518060e0016040528060008152602001600060028111156141245761412361455c565b5b8152602001600073ffffffffffffffffffffffffffffffffffffffff1681526020016000815260200160008152602001600073ffffffffffffffffffffffffffffffffffffffff168152602001600073ffffffffffffffffffffffffffffffffffffffff1681525090565b5b808211156141a8576000816000905550600101614190565b5090565b6000604051905090565b600080fd5b600080fd5b60007fffffffff0000000000000000000000000000000000000000000000000000000082169050919050565b6141f5816141c0565b811461420057600080fd5b50565b600081359050614212816141ec565b92915050565b60006020828403121561422e5761422d6141b6565b5b600061423c84828501614203565b91505092915050565b60008115159050919050565b61425a81614245565b82525050565b60006020820190506142756000830184614251565b92915050565b600073ffffffffffffffffffffffffffffffffffffffff82169050919050565b60006142a68261427b565b9050919050565b6142b68161429b565b81146142c157600080fd5b50565b6000813590506142d3816142ad565b92915050565b6000602082840312156142ef576142ee6141b6565b5b60006142fd848285016142c4565b91505092915050565b6000819050919050565b61431981614306565b811461432457600080fd5b50565b60008135905061433681614310565b92915050565b600060208284031215614352576143516141b6565b5b600061436084828501614327565b91505092915050565b61437281614306565b82525050565b600060208201905061438d6000830184614369565b92915050565b6000819050919050565b60006143b86143b36143ae8461427b565b614393565b61427b565b9050919050565b60006143ca8261439d565b9050919050565b60006143dc826143bf565b9050919050565b6143ec816143d1565b82525050565b600060208201905061440760008301846143e3565b92915050565b60008060408385031215614424576144236141b6565b5b600061443285828601614327565b9250506020614443858286016142c4565b9150509250929050565b600081519050919050565b600082825260208201905092915050565b6000819050602082019050919050565b6144828161429b565b82525050565b61449181614245565b82525050565b6060820160008201516144ad6000850182614479565b5060208201516144c06020850182614479565b5060408201516144d36040850182614488565b50505050565b60006144e58383614497565b60608301905092915050565b6000602082019050919050565b60006145098261444d565b6145138185614458565b935061451e83614469565b8060005b8381101561454f57815161453688826144d9565b9750614541836144f1565b925050600181019050614522565b5085935050505092915050565b7f4e487b7100000000000000000000000000000000000000000000000000000000600052602160045260246000fd5b6005811061459c5761459b61455c565b5b50565b60008190506145ad8261458b565b919050565b60006145bd8261459f565b9050919050565b6145cd816145b2565b82525050565b6145dc81614306565b82525050565b600060608301600083015184820360008601526145ff82826144fe565b915050602083015161461460208601826145c4565b50604083015161462760408601826145d3565b508091505092915050565b6000602082019050818103600083015261464c81846145e2565b905092915050565b600061465f8261429b565b9050919050565b61466f81614654565b811461467a57600080fd5b50565b60008135905061468c81614666565b92915050565b6000602082840312156146a8576146a76141b6565b5b60006146b68482850161467d565b91505092915050565b6146c881614245565b81146146d357600080fd5b50565b6000813590506146e5816146bf565b92915050565b600060208284031215614701576147006141b6565b5b600061470f848285016146d6565b91505092915050565b6000806040838503121561472f5761472e6141b6565b5b600061473d858286016142c4565b925050602061474e858286016142c4565b9150509250929050565b6000614763826143bf565b9050919050565b61477381614758565b82525050565b600060208201905061478e600083018461476a565b92915050565b6000819050919050565b6147a781614794565b81146147b257600080fd5b50565b6000813590506147c48161479e565b92915050565b600080604083850312156147e1576147e06141b6565b5b60006147ef858286016142c4565b9250506020614800858286016147b5565b9150509250929050565b6148138161429b565b82525050565b600060208201905061482e600083018461480a565b92915050565b6000819050919050565b61484781614834565b811461485257600080fd5b50565b6000813590506148648161483e565b92915050565b6000602082840312156148805761487f6141b6565b5b600061488e84828501614855565b91505092915050565b6148a081614794565b82525050565b600381106148b7576148b661455c565b5b50565b60008190506148c8826148a6565b919050565b60006148d8826148ba565b9050919050565b6148e8816148cd565b82525050565b60006148f9826143bf565b9050919050565b614909816148ee565b82525050565b61491881614834565b82525050565b6000614929826143bf565b9050919050565b6149398161491e565b82525050565b60e0820160008201516149556000850182614897565b50602082015161496860208501826148df565b50604082015161497b6040850182614900565b50606082015161498e6060850182614897565b5060808201516149a1608085018261490f565b5060a08201516149b460a0850182614930565b5060c08201516149c760c0850182614479565b50505050565b600060e0820190506149e2600083018461493f565b92915050565b600082825260208201905092915050565b7f496e636f7272656374207374617465207472616e736974696f6e000000000000600082015250565b6000614a2f601a836149e8565b9150614a3a826149f9565b602082019050919050565b60006020820190508181036000830152614a5e81614a22565b9050919050565b7f416363657373436f6e74726f6c3a2063616e206f6e6c792072656e6f756e636560008201527f20726f6c657320666f722073656c660000000000000000000000000000000000602082015250565b6000614ac1602f836149e8565b9150614acc82614a65565b604082019050919050565b60006020820190508181036000830152614af081614ab4565b9050919050565b7f4f776e61626c653a2063616c6c6572206973206e6f7420746865206f776e6572600082015250565b6000614b2d6020836149e8565b9150614b3882614af7565b602082019050919050565b60006020820190508181036000830152614b5c81614b20565b9050919050565b600081519050614b72816142ad565b92915050565b600060208284031215614b8e57614b8d6141b6565b5b6000614b9c84828501614b63565b91505092915050565b7f4e6f7420646f6d61696e206f776e657200000000000000000000000000000000600082015250565b6000614bdb6010836149e8565b9150614be682614ba5565b602082019050919050565b60006020820190508181036000830152614c0a81614bce565b9050919050565b600081519050919050565b60005b83811015614c3a578082015181840152602081019050614c1f565b83811115614c49576000848401525b50505050565b6000601f19601f8301169050919050565b6000614c6b82614c11565b614c7581856149e8565b9350614c85818560208601614c1c565b614c8e81614c4f565b840191505092915050565b60006020820190508181036000830152614cb38184614c60565b905092915050565b6000606082019050614cd06000830186614369565b614cdd6020830185614369565b614cea604083018461480a565b949350505050565b600080fd5b600080fd5b7f4e487b7100000000000000000000000000000000000000000000000000000000600052604160045260246000fd5b614d3482614c4f565b810181811067ffffffffffffffff82111715614d5357614d52614cfc565b5b80604052505050565b6000614d666141ac565b9050614d728282614d2b565b919050565b600067ffffffffffffffff821115614d9257614d91614cfc565b5b614d9b82614c4f565b9050602081019050919050565b6000614dbb614db684614d77565b614d5c565b905082815260208101848484011115614dd757614dd6614cf7565b5b614de2848285614c1c565b509392505050565b600082601f830112614dff57614dfe614cf2565b5b8151614e0f848260208601614da8565b91505092915050565b600060208284031215614e2e57614e2d6141b6565b5b600082015167ffffffffffffffff811115614e4c57614e4b6141bb565b5b614e5884828501614dea565b91505092915050565b600060ff82169050919050565b614e7781614e61565b8114614e8257600080fd5b50565b600081519050614e9481614e6e565b92915050565b600060208284031215614eb057614eaf6141b6565b5b6000614ebe84828501614e85565b91505092915050565b7f4e6f7420612076616c696420455243323020636f6e7472616374000000000000600082015250565b6000614efd601a836149e8565b9150614f0882614ec7565b602082019050919050565b60006020820190508181036000830152614f2c81614ef0565b9050919050565b600081519050614f4281614310565b92915050565b600060208284031215614f5e57614f5d6141b6565b5b6000614f6c84828501614f33565b91505092915050565b600081905092915050565b7f416363657373436f6e74726f6c3a206163636f756e7420000000000000000000600082015250565b6000614fb6601783614f75565b9150614fc182614f80565b601782019050919050565b6000614fd782614c11565b614fe18185614f75565b9350614ff1818560208601614c1c565b80840191505092915050565b7f206973206d697373696e6720726f6c6520000000000000000000000000000000600082015250565b6000615033601183614f75565b915061503e82614ffd565b601182019050919050565b600061505482614fa9565b91506150608285614fcc565b915061506b82615026565b91506150778284614fcc565b91508190509392505050565b7f4f776e61626c653a206e6577206f776e657220697320746865207a65726f206160008201527f6464726573730000000000000000000000000000000000000000000000000000602082015250565b60006150df6026836149e8565b91506150ea82615083565b604082019050919050565b6000602082019050818103600083015261510e816150d2565b9050919050565b7f4e487b7100000000000000000000000000000000000000000000000000000000600052601160045260246000fd5b600061514f82614834565b915061515a83614834565b9250817fffffffffffffffffffffffffffffffffffffffffffffffffffffffffffffffff048311821515161561519357615192615115565b5b828202905092915050565b60006151a982614834565b91506151b483614834565b9250827fffffffffffffffffffffffffffffffffffffffffffffffffffffffffffffffff038211156151e9576151e8615115565b5b828201905092915050565b7f4e487b7100000000000000000000000000000000000000000000000000000000600052603260045260246000fd5b600061522e82614834565b9150600082141561524257615241615115565b5b600182039050919050565b7f537472696e67733a20686578206c656e67746820696e73756666696369656e74600082015250565b60006152836020836149e8565b915061528e8261524d565b602082019050919050565b600060208201905081810360008301526152b281615276565b9050919050565b7f4e487b7100000000000000000000000000000000000000000000000000000000600052602260045260246000fd5b6000600282049050600182168061530057607f821691505b60208210811415615314576153136152b9565b5b5091905056fea2646970667358221220bb542d7dad7c046452dbeaf81a4cac6d5564c5bfa6db7e92e83d342b7b4ad3fc64736f6c634300080b0033",
  "immutableReferences": {},
  "source": "// SPDX-License-Identifier: MIT OR Apache-2.0\npragma solidity ^0.8.4;\n\nimport {AccessControl} from \"@openzeppelin/contracts/access/AccessControl.sol\";\nimport {ERC20} from \"@openzeppelin/contracts/token/ERC20/ERC20.sol\";\nimport {IRNS} from \"./rns/IRNSSuite.sol\";\nimport {MarketplaceAccessControl, ASSET_PROVIDER, ASSET_PROVIDER_MANAGER, FINANCE_MANAGER, ASSET_VALIDATOR, ASSET_VALIDATOR_MANAGER, ER_MSG_ROLE_NOT_REQUIRED} from \"./access/MarketplaceAccessControl.sol\";\nimport {MarketplaceConfiguration} from \"./config/MarketplaceConfiguration.sol\";\nimport {AssetManagement} from \"./asset/AssetManagement.sol\";\nimport {AssetState} from \"./asset/Asset.sol\";\nimport {IMarketplace} from \"./IMarketplace.sol\";\nimport {AssetTypeWhitelist} from \"./whitelist/AssetTypeWhitelist.sol\";\nimport {AssetValidatorDelegateWhitelist} from \"./whitelist/AssetValidatorDelegateWhitelist.sol\";\nimport {RNSNameGenerationStrategy} from \"./rns/RNSNameGenerationStrategy.sol\";\nimport {Order} from \"./order/Order.sol\";\n\n/**\n    @author RIF Protocols Team @IOVLabs\n    @title MarketplaceAcceptedCurrency\n\n    @dev Structure that defines a currency\n*/\nstruct MarketplaceAcceptedCurrency {\n    string name;\n    string symbol;\n    uint8 decimals;\n}\n\n/**\n    @author RIF Protocols Team @IOVLabs\n    @title Marketplace\n\n    @dev Customisable marketplace contract. Provides the ability to buy and sell assets/services via custom exchange methods (sale, auction, etc).\n    extended by MarketplaceConfiguration to provide configuration\n    and by MarketplaceAccessControl to provide system roles and hierarchy\n*/\ncontract Marketplace is\n    IMarketplace,\n    MarketplaceAccessControl,\n    MarketplaceConfiguration,\n    AssetValidatorDelegateWhitelist,\n    AssetTypeWhitelist,\n    AssetManagement\n{\n    IRNS private _rns;\n    bytes32 public rnsDomain;\n    RNSNameGenerationStrategy private _rnsNameGenerationStrategy;\n\n    /**\n     *  @dev Stores the currencies accepted by the marketplace (ERC20 tokens)\n     */\n    mapping(address => MarketplaceAcceptedCurrency) private _acceptedCurrencies;\n\n    /**\n     *  @dev Stores the currencies accepted by the marketplace (ERC20 tokens)\n     */\n    mapping(uint256 => Order) private _orders;\n\n    constructor(\n        bool _requireWhitelistedAssetType,\n        bool _requireWhitelistedAssetProvider,\n        bool _requireAssetValidation,\n        bool _requireSaleStrategyPerAsset,\n        bool _requireSameCurrencyPerAsset,\n        bool _requireAssetSubdomain,\n        bool _supportStakingAndSlashing\n    )\n        MarketplaceConfiguration(\n            _requireWhitelistedAssetType,\n            _requireWhitelistedAssetProvider,\n            _requireAssetValidation,\n            _requireSaleStrategyPerAsset,\n            _requireSameCurrencyPerAsset,\n            _requireAssetSubdomain,\n            _supportStakingAndSlashing\n        )\n    {}\n\n    /***************\n        RNS \n    ****************/\n    /**\n        @notice Returns the address of RNS contract associated with this marketplace\n        @return IRNS - RNS contract address\n    */\n    function rns() public view returns (IRNS) {\n        return _rns;\n    }\n\n    /**\n        @notice Sets the RNS contract address\n        @dev Only available to OWNER\n        @param rns_ - RNS contract address\n    */\n    function setRNSRegistry(IRNS rns_) external onlyOwner {\n        _rns = rns_;\n    }\n\n    /**\n        @notice Stores RNS domain node after validation of its ownership\n        @dev calls third-party contract assigned by OWNER of this Marketplace\n        @dev Only callable by OWNER\n        @param rnsDomainNode - bytes32 representation of an RNS domain name\n    */\n    function assignRnsDomain(bytes32 rnsDomainNode)\n        external\n        override\n        onlyOwner\n    {\n        require(_rns.owner(rnsDomainNode) == msg.sender, \"Not domain owner\");\n        rnsDomain = rnsDomainNode;\n    }\n\n    /**\n        @notice Creates a subdomain on this Marketplace's RNS domain\n        @dev Only callable by OWNER\n        @param label - bytes32 representation of an RNS domain name to be assigned as subdomain\n    */\n    function createSubdomain(bytes32 label) public onlyOwner {\n        _rns.setSubnodeOwner(rnsDomain, label, address(this));\n    }\n\n    /**\n        @notice Returns the assigned RNS subdomain name generation strategy\n        @return the strategy contract address\n    */\n    function getRnsNameGenerationStrategy()\n        public\n        view\n        returns (RNSNameGenerationStrategy)\n    {\n        return _rnsNameGenerationStrategy;\n    }\n\n    /**\n        @notice Sets a RNS subdomain name generation strategy contract address to use to automatically generate subdomain names for assets\n        @param _strategy - the strategy contract address\n    */\n    function assignRnsNameGenerationStrategy(address _strategy)\n        external\n        override\n    {\n        _rnsNameGenerationStrategy = RNSNameGenerationStrategy(_strategy);\n    }\n\n    /***************\n        Currency \n    ****************/\n\n    /**\n        @notice Shows whether or not a given erc20 token is an accepted currency\n        @param _tokenERC20 - the address of an ERC20 token \n    */\n    function isAcceptedCurrency(address _tokenERC20)\n        public\n        view\n        returns (bool)\n    {\n        return _acceptedCurrencies[_tokenERC20].decimals != 0;\n    }\n\n    /**\n        @dev Adds an accepted currency into the marketplace\n        @param _tokenERC20 - the address of an ERC20 token \n     */\n    function addAcceptedCurrency(address _tokenERC20)\n        external\n        override\n        onlyRole(FINANCE_MANAGER)\n    {\n        string memory name = ERC20(_tokenERC20).name();\n        string memory symbol = ERC20(_tokenERC20).symbol();\n        uint8 decimals = ERC20(_tokenERC20).decimals();\n\n        require(decimals > 0, \"Not a valid ERC20 contract\");\n\n        _acceptedCurrencies[_tokenERC20] = MarketplaceAcceptedCurrency(\n            name,\n            symbol,\n            decimals\n        );\n    }\n\n    /**\n        @dev Removes an accepted currency from the marketplace\n        @param _tokenERC20 - the address of an ERC20 token \n     */\n    function removeAcceptedCurrency(address _tokenERC20)\n        external\n        override\n        onlyRole(FINANCE_MANAGER)\n    {\n        delete _acceptedCurrencies[_tokenERC20];\n    }\n\n    function withdraw(address _to, int256 amount) external override {\n        // TODO: add logic\n    }\n\n    /***************\n        Asset \n    ****************/\n\n    /**\n     * @dev Approve an asset with validator role.\n     */\n    function _approveTokenAsValidator(address token_) private {\n        _evaluateToken(token_, msg.sender, true);\n    }\n\n    /**\n     * @dev Approve an asset with delegate permission.\n     */\n    function _approveTokenAsDelegate(address token_, address validator_)\n        private\n    {\n        _evaluateToken(token_, validator_, true);\n    }\n\n    /**\n        @notice Approve an asset for registration.\n        @dev if approving as delegate use the address of the validator on behalf of whom the task is performed.\n        @dev if approving as validator, use your own address.\n        @param assetValidator - account address of the validator on whose behalf the asset is being approved\n        @param token_ - the asset's token address \n     */\n    function approveAsset(address assetValidator, address token_)\n        external\n        override\n        requiresAssetValidation\n        onlyRole(ASSET_VALIDATOR)\n        tokenInState(token_, AssetState.PendingValidation)\n    {\n        if (assetValidator == msg.sender) {\n            _approveTokenAsValidator(token_);\n            return;\n        }\n        _approveTokenAsDelegate(token_, assetValidator);\n    }\n\n    /**\n     * @dev Reject an asset with validator role.\n     */\n    function _rejectTokenAsValidator(address token_) private {\n        _evaluateToken(token_, msg.sender, false);\n    }\n\n    /**\n     * @dev Reject an asset with delegate permission.\n     */\n    function _rejectTokenAsDelegate(address token_, address validator_)\n        private\n    {\n        _evaluateToken(token_, validator_, false);\n    }\n\n    /**\n        @dev Reject an asset for registration.\n        @dev if rejecting as delegate use the address of the validator on behalf of whom the task is performed.\n        @dev if rejecting as validator, use your own address.\n        @param assetValidator - account address of the validator on whose behalf the asset is being rejected\n        @param token_ - the asset's token address\n     */\n    function rejectAsset(address assetValidator, address token_)\n        external\n        override\n        requiresAssetValidation\n        onlyRole(ASSET_VALIDATOR)\n        tokenInState(token_, AssetState.PendingValidation)\n    {\n        if (assetValidator == msg.sender) {\n            _rejectTokenAsValidator(token_);\n            return;\n        }\n        _rejectTokenAsDelegate(token_, assetValidator);\n    }\n\n    /**\n        @notice transitions an Asset to `AssetRegistered` state if it is in the `ReadyToRegister` state\n        @dev if validation is not required this step \n        @param token_ address of the _token\n        @inheritdoc AssetManagement\n     */\n    function registerAsset(address token_)\n        external\n        override\n        tokenInState(token_, AssetState.ReadyToRegister)\n    {\n        if (_requireAssetSubdomain) {\n            // create subdomain for asset\n            bytes32 label = _rnsNameGenerationStrategy.generate(token_);\n            createSubdomain(label);\n            _setSubdomain(token_, label);\n        }\n\n        _transitionAsset(token_, AssetState.AssetRegistered);\n    }\n\n    function sellAsset(address token_) external override returns (bool) {\n        // TODO: add logic\n    }\n\n    /**\n        @dev Grants address the ASSET_VALIDATOR_MANAGER role if `requireAssetValidation` is `true`.\n    */\n    function addAssetValidatorManager(address _assetValidatorManagerAddr)\n        external\n        override\n        requiresAssetValidation\n    {\n        grantRole(ASSET_VALIDATOR_MANAGER, _assetValidatorManagerAddr);\n    }\n\n    /**\n        @dev Grants address the ASSET_VALIDATOR role if `requireAssetValidation` is `true`\n    */\n    function addAssetValidator(address _assetValidatorAddr)\n        external\n        override\n        requiresAssetValidation\n    {\n        grantRole(ASSET_VALIDATOR, _assetValidatorAddr);\n    }\n\n    /**\n        @dev Grants address the ASSET_PROVIDER_MANAGER role if `_requireWhitelistedAssetProvider` is `true`\n        @inheritdoc MarketplaceAccessControl\n    */\n    function addAssetProviderManager(address _assetProviderManagerAddr)\n        external\n        override\n    {\n        require(_requireWhitelistedAssetProvider, ER_MSG_ROLE_NOT_REQUIRED);\n\n        grantRole(ASSET_PROVIDER_MANAGER, _assetProviderManagerAddr);\n    }\n\n    /**\n        @dev Grants address the ASSET_PROVIDER role if `_requireWhitelistedAssetProvider` is `true`\n        @inheritdoc MarketplaceAccessControl\n    */\n    function addAssetProvider(address _assetProviderAddr) external override {\n        require(_requireWhitelistedAssetProvider, ER_MSG_ROLE_NOT_REQUIRED);\n\n        grantRole(ASSET_PROVIDER, _assetProviderAddr);\n    }\n\n    /***************\n        Order \n    ****************/\n    function assignOrderIdGeneratorStrategy(address _strategy)\n        external\n        override\n    {\n        // TODO: add logic\n    }\n\n    function getOrder(uint256 _orderId)\n        public\n        view\n        override\n        returns (Order memory)\n    {\n        return _orders[_orderId];\n    }\n}\n",
  "sourcePath": "/Users/jjtechera/Documents/GitHub/rif-marketplace-engine-integration-tests/contracts/Marketplace.sol",
  "compiler": {
    "name": "solc",
    "version": "0.8.11+commit.d7f03943.Emscripten.clang"
  },
  "schemaVersion": "3.4.4",
  "updatedAt": "2021-12-22T00:27:52.331Z",
  "networkType": "ethereum",
  "devdoc": {
    "author": "RIF Protocols Team @IOVLabs",
    "details": "Customisable marketplace contract. Provides the ability to buy and sell assets/services via custom exchange methods (sale, auction, etc). extended by MarketplaceConfiguration to provide configuration and by MarketplaceAccessControl to provide system roles and hierarchy",
    "kind": "dev",
    "methods": {
      "addAcceptedCurrency(address)": {
        "details": "Adds an accepted currency into the marketplace",
        "params": {
          "_tokenERC20": "- the address of an ERC20 token "
        }
      },
      "addAdministrator(address)": {
        "details": "Grants address all MANAGER roles. Only executable by the owner."
      },
      "addAssetManager(address)": {
        "details": "Grants address the ASSET_MANAGER role."
      },
      "addAssetProvider(address)": {
        "details": "Grants address the ASSET_PROVIDER role if `_requireWhitelistedAssetProvider` is `true`"
      },
      "addAssetProviderManager(address)": {
        "details": "Grants address the ASSET_PROVIDER_MANAGER role if `_requireWhitelistedAssetProvider` is `true`"
      },
      "addAssetValidator(address)": {
        "details": "Grants address the ASSET_VALIDATOR role if `requireAssetValidation` is `true`"
      },
      "addAssetValidatorManager(address)": {
        "details": "Grants address the ASSET_VALIDATOR_MANAGER role if `requireAssetValidation` is `true`."
      },
      "addFinance(address)": {
        "details": "Grants address the FINANCE role."
      },
      "addFinanceManager(address)": {
        "details": "Grants address the FINANCE_MANAGER role."
      },
      "approveAsset(address,address)": {
        "details": "if approving as delegate use the address of the validator on behalf of whom the task is performed.if approving as validator, use your own address.",
        "params": {
          "assetValidator": "- account address of the validator on whose behalf the asset is being approved",
          "token_": "- the asset's token address "
        }
      },
      "assignRnsDomain(bytes32)": {
        "details": "calls third-party contract assigned by OWNER of this MarketplaceOnly callable by OWNER",
        "params": {
          "rnsDomainNode": "- bytes32 representation of an RNS domain name"
        }
      },
      "assignRnsNameGenerationStrategy(address)": {
        "params": {
          "_strategy": "- the strategy contract address"
        }
      },
      "createSubdomain(bytes32)": {
        "details": "Only callable by OWNER",
        "params": {
          "label": "- bytes32 representation of an RNS domain name to be assigned as subdomain"
        }
      },
      "getAsset(address)": {
        "custom:one": "state - InitialState = 0 | PendingValidation | ReadyToRegister | AssetInvalidated | AssetRegistered",
        "custom:two": "subdomain - bytes32;",
        "custom:zero": "validatorHistory - [{ address validator, address deletage, bool approved }]",
        "params": {
          "token_": "address of the token"
        },
        "returns": {
          "_0": "Asset - which would be an array of:"
        }
      },
      "getRnsNameGenerationStrategy()": {
        "returns": {
          "_0": "the strategy contract address"
        }
      },
      "getRoleAdmin(bytes32)": {
        "details": "Returns the admin role that controls `role`. See {grantRole} and {revokeRole}. To change a role's admin, use {_setRoleAdmin}."
      },
      "grantRole(bytes32,address)": {
        "details": "Grants `role` to `account`. If `account` had not been already granted `role`, emits a {RoleGranted} event. Requirements: - the caller must have ``role``'s admin role."
      },
      "hasRole(bytes32,address)": {
        "details": "Returns `true` if `account` has been granted `role`."
      },
      "isAcceptedCurrency(address)": {
        "params": {
          "_tokenERC20": "- the address of an ERC20 token "
        }
      },
      "isAdministrator(address)": {
        "details": "Returns `true` if address has been granted the ADMINISTRATOR role "
      },
      "isAssetManager(address)": {
        "details": "Returns `true` if address has been granted the ASSET_MANAGER role "
      },
      "isAssetProvider(address)": {
        "details": "Returns `true` if address has been granted the ASSET_PROVIDER role "
      },
      "isAssetProviderManager(address)": {
        "details": "Returns `true` if address has been granted the ASSET_PROVIDER_MANAGER role "
      },
      "isAssetSubdomainRequired()": {
        "details": "Returns `true` if asset subdomain is enabled "
      },
      "isAssetValidationRequired()": {
        "details": "Returns `true` if asset validation is enabled "
      },
      "isAssetValidator(address)": {
        "details": "Returns `true` if address has been granted the ASSET_VALIDATOR role "
      },
      "isAssetValidatorManager(address)": {
        "details": "Returns `true` if address has been granted the ASSET_VALIDATOR_MANAGER role "
      },
      "isFinance(address)": {
        "details": "Returns `true` if address has been granted the FINANCE role "
      },
      "isFinanceManager(address)": {
        "details": "Returns `true` if address has been granted the FINANCE_MANAGER role "
      },
      "isOwnerRole(address)": {
        "details": "Returns `true` if address has been granted the OWNER role."
      },
      "isSaleStrategyPerAssetRequired()": {
        "details": "Returns `true` if per-asset sale strategy is enabled "
      },
      "isSameCurrencyPerAssetRequired()": {
        "details": "Returns `true` if all assets use the same set of whitelisted currencies "
      },
      "isStakingAndSlashingSupported()": {
        "details": "Returns `true` if staking and slashing is enabled "
      },
      "isWhitelistedAssetProviderRequired()": {
        "details": "Returns `true` if asset provider whitelisting is enabled "
      },
      "isWhitelistedAssetRequired()": {
        "details": "Returns `true` if asset type whitelisting is enabled "
      },
      "owner()": {
        "details": "Returns the address of the current owner."
      },
      "registerAsset(address)": {
        "details": "if validation is not required this step ",
        "params": {
          "token_": "address of the _token"
        }
      },
      "rejectAsset(address,address)": {
        "details": "Reject an asset for registration.if rejecting as delegate use the address of the validator on behalf of whom the task is performed.if rejecting as validator, use your own address.",
        "params": {
          "assetValidator": "- account address of the validator on whose behalf the asset is being rejected",
          "token_": "- the asset's token address"
        }
      },
      "removeAcceptedCurrency(address)": {
        "details": "Removes an accepted currency from the marketplace",
        "params": {
          "_tokenERC20": "- the address of an ERC20 token "
        }
      },
      "removeAdministrator(address)": {
        "details": "Revoikes address all MANAGER roles. Only executable by the owner."
      },
      "removeAssetManager(address)": {
        "details": "Revokes address the ASSET_MANAGER role."
      },
      "removeAssetProvider(address)": {
        "details": "Revokes address the ASSET_PROVIDER role."
      },
      "removeAssetProviderManager(address)": {
        "details": "Revokes address the ASSET_PROVIDER_MANAGER role."
      },
      "removeAssetValidator(address)": {
        "details": "Revokes address the ASSET_VALIDATOR role."
      },
      "removeAssetValidatorManager(address)": {
        "details": "Revokes address the ASSET_VALIDATOR_MANAGER role."
      },
      "removeFinance(address)": {
        "details": "Revokes address the FINANCE role."
      },
      "removeFinanceManager(address)": {
        "details": "Revokes address the FINANCE_MANAGER role."
      },
      "renounceOwnership()": {
        "details": "Leaves the contract without owner. It will not be possible to call `onlyOwner` functions anymore. Can only be called by the current owner. NOTE: Renouncing ownership will leave the contract without an owner, thereby removing any functionality that is only available to the owner."
      },
      "renounceRole(bytes32,address)": {
        "details": "Revokes `role` from the calling account. Roles are often managed via {grantRole} and {revokeRole}: this function's purpose is to provide a mechanism for accounts to lose their privileges if they are compromised (such as when a trusted device is misplaced). If the calling account had been revoked `role`, emits a {RoleRevoked} event. Requirements: - the caller must be `account`."
      },
      "requestAssetRegistration(address)": {
        "custom:throws": "\"Asset type not allowed\" if asset whitelisting is required and not satisfied\"Provider not whitelisted\" if such whitelisting is required and not satisfied",
        "details": "first it transitions to ReadyToRegister (if no validation is required or it has been approved), before the next state transition to AssetRegistered",
        "params": {
          "token_": "address of the _token"
        }
      },
      "revokeRole(bytes32,address)": {
        "details": "Revokes `role` from `account`. If `account` had been granted `role`, emits a {RoleRevoked} event. Requirements: - the caller must have ``role``'s admin role."
      },
      "rns()": {
        "returns": {
          "_0": "IRNS - RNS contract address"
        }
      },
      "setRNSRegistry(address)": {
        "details": "Only available to OWNER",
        "params": {
          "rns_": "- RNS contract address"
        }
      },
      "setRequireAssetSubdomain(bool)": {
        "details": "sets a new value for requireAssetSubdomain Only executable by the contract owner. "
      },
      "setRequireAssetValidation(bool)": {
        "details": "sets a new value for requireAssetValidation Only executable by the contract owner. "
      },
      "setRequireSaleStrategyPerAsset(bool)": {
        "details": "sets a new value for requireSaleStrategyPerAsset Only executable by the contract owner. "
      },
      "setRequireSameCurrencyPerAsset(bool)": {
        "details": "sets a new value for requireSameCurrencyPerAsset Only executable by the contract owner. "
      },
      "setRequireWhitelistedAsset(bool)": {
        "details": "sets a new value for requireWhitelistedAssetType Only executable by the contract owner. "
      },
      "setRequireWhitelistedAssetProvider(bool)": {
        "details": "sets a new value for requireWhitelistedAssetProvider Only executable by the contract owner. "
      },
      "setSupportsStakingSlashing(bool)": {
        "details": "sets a new value for supportStakingAndSlashing Only executable by the contract owner. "
      },
      "supportsInterface(bytes4)": {
        "details": "See {IERC165-supportsInterface}."
      },
      "transferOwnership(address)": {
        "details": "Transfers ownership of the contract to a new account (`newOwner`). Can only be called by the current owner."
      }
    },
    "stateVariables": {
      "_acceptedCurrencies": {
        "details": "Stores the currencies accepted by the marketplace (ERC20 tokens)"
      },
      "_orders": {
        "details": "Stores the currencies accepted by the marketplace (ERC20 tokens)"
      }
    },
    "title": "Marketplace",
    "version": 1
  },
  "userdoc": {
    "kind": "user",
    "methods": {
      "addAssetProvider(address)": {
        "notice": "Grants address the ASSET_PROVIDER role."
      },
      "addAssetProviderManager(address)": {
        "notice": "Grants address the ASSET_PROVIDER_MANAGER role."
      },
      "approveAsset(address,address)": {
        "notice": "Approve an asset for registration."
      },
      "assignRnsDomain(bytes32)": {
        "notice": "Stores RNS domain node after validation of its ownership"
      },
      "assignRnsNameGenerationStrategy(address)": {
        "notice": "Sets a RNS subdomain name generation strategy contract address to use to automatically generate subdomain names for assets"
      },
      "createSubdomain(bytes32)": {
        "notice": "Creates a subdomain on this Marketplace's RNS domain"
      },
      "getAsset(address)": {
        "notice": "Retreives Asset information of a token"
      },
      "getRnsNameGenerationStrategy()": {
        "notice": "Returns the assigned RNS subdomain name generation strategy"
      },
      "isAcceptedCurrency(address)": {
        "notice": "Shows whether or not a given erc20 token is an accepted currency"
      },
      "registerAsset(address)": {
        "notice": "transitions an Asset to `AssetRegistered` state if it is in the `ReadyToRegister` state"
      },
      "requestAssetRegistration(address)": {
        "notice": "Makes necessary checks and transitions to either AssetRegistered or PendingValidation state (if asset validation is required)."
      },
      "rns()": {
        "notice": "Returns the address of RNS contract associated with this marketplace"
      },
      "setRNSRegistry(address)": {
        "notice": "Sets the RNS contract address"
      }
    },
    "version": 1
  }
}