{
  "contractName": "NFTRNSNameGenerationStrategy",
  "abi": [
    {
      "inputs": [
        {
          "internalType": "address",
          "name": "_asset",
          "type": "address"
        }
      ],
      "name": "generate",
      "outputs": [
        {
          "internalType": "bytes32",
          "name": "",
          "type": "bytes32"
        }
      ],
      "stateMutability": "view",
      "type": "function"
    }
  ],
  "bytecode": "0x608060405234801561001057600080fd5b5061048c806100206000396000f3fe608060405234801561001057600080fd5b506004361061002b5760003560e01c80632fa61cd814610030575b600080fd5b61004a6004803603810190610045919061018d565b610060565b60405161005791906101d3565b60405180910390f35b6000808273ffffffffffffffffffffffffffffffffffffffff166306fdde036040518163ffffffff1660e01b8152600401600060405180830381865afa1580156100ae573d6000803e3d6000fd5b505050506040513d6000823e3d601f19601f820116820180604052508101906100d79190610358565b9050600081511461010e57806040516020016100f39190610434565b60405160208183030381529060405280519060200120610113565b6000801b5b915050919050565b6000604051905090565b600080fd5b600080fd5b600073ffffffffffffffffffffffffffffffffffffffff82169050919050565b600061015a8261012f565b9050919050565b61016a8161014f565b811461017557600080fd5b50565b60008135905061018781610161565b92915050565b6000602082840312156101a3576101a2610125565b5b60006101b184828501610178565b91505092915050565b6000819050919050565b6101cd816101ba565b82525050565b60006020820190506101e860008301846101c4565b92915050565b600080fd5b600080fd5b6000601f19601f8301169050919050565b7f4e487b7100000000000000000000000000000000000000000000000000000000600052604160045260246000fd5b610241826101f8565b810181811067ffffffffffffffff821117156102605761025f610209565b5b80604052505050565b600061027361011b565b905061027f8282610238565b919050565b600067ffffffffffffffff82111561029f5761029e610209565b5b6102a8826101f8565b9050602081019050919050565b60005b838110156102d35780820151818401526020810190506102b8565b838111156102e2576000848401525b50505050565b60006102fb6102f684610284565b610269565b905082815260208101848484011115610317576103166101f3565b5b6103228482856102b5565b509392505050565b600082601f83011261033f5761033e6101ee565b5b815161034f8482602086016102e8565b91505092915050565b60006020828403121561036e5761036d610125565b5b600082015167ffffffffffffffff81111561038c5761038b61012a565b5b6103988482850161032a565b91505092915050565b600081519050919050565b600081905092915050565b60006103c2826103a1565b6103cc81856103ac565b93506103dc8185602086016102b5565b80840191505092915050565b7f2e6d6b70646f6d61696e2e72736b000000000000000000000000000000000000600082015250565b600061041e600e836103ac565b9150610429826103e8565b600e82019050919050565b600061044082846103b7565b915061044b82610411565b91508190509291505056fea26469706673582212201318f6cae87c6ad7b55cc1048c8c2ea2b222147e5fe7859b46ff353fe6233a7364736f6c634300080b0033",
  "immutableReferences": {},
  "source": "// SPDX-License-Identifier: MIT OR Apache-2.0\npragma solidity ^0.8.4;\n\nimport {RNSNameGenerationStrategy} from \"./RNSNameGenerationStrategy.sol\";\nimport {IERC721Metadata} from \"@openzeppelin/contracts/token/ERC721/extensions/IERC721Metadata.sol\";\n\ncontract NFTRNSNameGenerationStrategy is RNSNameGenerationStrategy {\n    /**\n        @notice Generates the domain name using openzeppelin IERC721Metadata interface. \n        @param _asset an IERC721Metadata contract address, to retreive the token details.\n        @return result it consists of the asset name and a literal string: name and .mkpdomain.rsk.\n    */\n    function generate(address _asset) external view override returns (bytes32) {\n        string memory name = IERC721Metadata(_asset).name();\n\n        return\n            bytes(name).length == 0\n                ? bytes32(0)\n                : keccak256(abi.encodePacked(name, \".mkpdomain.rsk\"));\n    }\n}\n",
  "sourcePath": "/Users/rjauregui/RIF_MKTV2/rif-marketplace-engine-integration-tests/contracts/rns/NFTRNSNameGenerationStrategy.sol",
  "compiler": {
    "name": "solc",
    "version": "0.8.11+commit.d7f03943.Emscripten.clang"
  },
  "schemaVersion": "3.4.3",
  "updatedAt": "2021-12-22T21:29:30.857Z",
  "devdoc": {
    "kind": "dev",
    "methods": {
      "generate(address)": {
        "params": {
          "_asset": "an IERC721Metadata contract address, to retreive the token details."
        },
        "returns": {
          "_0": "result it consists of the asset name and a literal string: name and .mkpdomain.rsk."
        }
      }
    },
    "version": 1
  },
  "userdoc": {
    "kind": "user",
    "methods": {
      "generate(address)": {
        "notice": "Generates the domain name using openzeppelin IERC721Metadata interface. "
      }
    },
    "version": 1
  }
}